{
  "contractName": "ServiceRegistry",
  "abi": [
    {
      "anonymous": false,
      "inputs": [
        {
          "indexed": false,
          "internalType": "string",
          "name": "serviceID",
          "type": "string"
        },
        {
          "indexed": false,
          "internalType": "string",
          "name": "changeType",
          "type": "string"
        }
      ],
      "name": "ChangeService",
      "type": "event"
    },
    {
      "anonymous": false,
      "inputs": [
        {
          "indexed": false,
          "internalType": "string",
          "name": "serviceID",
          "type": "string"
        }
      ],
      "name": "NewService",
      "type": "event"
    },
    {
      "constant": true,
      "inputs": [],
      "name": "getServiceList",
      "outputs": [
        {
          "internalType": "string[]",
          "name": "",
          "type": "string[]"
        }
      ],
      "payable": false,
      "stateMutability": "view",
      "type": "function"
    },
    {
      "constant": false,
      "inputs": [
        {
          "components": [
            {
              "components": [
                {
                  "internalType": "string",
                  "name": "id",
                  "type": "string"
                },
                {
                  "internalType": "address",
                  "name": "manager",
                  "type": "address"
                },
                {
                  "internalType": "address",
                  "name": "serviceAccount",
                  "type": "address"
                },
                {
                  "internalType": "string",
                  "name": "companyName",
                  "type": "string"
                },
                {
                  "internalType": "string",
                  "name": "companyEmail",
                  "type": "string"
                },
                {
                  "internalType": "string",
                  "name": "companyContact",
                  "type": "string"
                },
                {
                  "internalType": "string",
                  "name": "description",
                  "type": "string"
                }
              ],
              "internalType": "struct ServiceRegistry.Header",
              "name": "header",
              "type": "tuple"
            },
            {
              "components": [
                {
                  "components": [
                    {
                      "internalType": "string",
                      "name": "image",
                      "type": "string"
                    },
                    {
                      "internalType": "string",
                      "name": "imageAccessUser",
                      "type": "string"
                    }
                  ],
                  "internalType": "struct ServiceRegistry.Container",
                  "name": "ct",
                  "type": "tuple"
                },
                {
                  "components": [
                    {
                      "internalType": "string[]",
                      "name": "location",
                      "type": "string[]"
                    },
                    {
                      "internalType": "string",
                      "name": "accessToken",
                      "type": "string"
                    },
                    {
                      "internalType": "string",
                      "name": "nodeID",
                      "type": "string"
                    },
                    {
                      "internalType": "string",
                      "name": "networkID",
                      "type": "string"
                    },
                    {
                      "internalType": "string",
                      "name": "serviceProtocol",
                      "type": "string"
                    },
                    {
                      "internalType": "string[]",
                      "name": "servicePoints",
                      "type": "string[]"
                    },
                    {
                      "internalType": "string",
                      "name": "servicePort",
                      "type": "string"
                    },
                    {
                      "internalType": "string",
                      "name": "nodeMountService",
                      "type": "string"
                    },
                    {
                      "internalType": "string",
                      "name": "nodeMountETCD",
                      "type": "string"
                    }
                  ],
                  "internalType": "struct ServiceRegistry.KubeContext",
                  "name": "kct",
                  "type": "tuple"
                }
              ],
              "internalType": "struct ServiceRegistry.Runtime",
              "name": "runtime",
              "type": "tuple"
            },
            {
              "internalType": "enum ServiceRegistry.State",
              "name": "state",
              "type": "uint8"
            },
            {
              "internalType": "uint256",
              "name": "serviceLocationIndex",
              "type": "uint256"
            },
            {
              "internalType": "uint256",
              "name": "serviceStartTime",
              "type": "uint256"
            },
            {
              "internalType": "uint256",
              "name": "serviceEndTime",
              "type": "uint256"
            }
          ],
          "internalType": "struct ServiceRegistry.Service",
          "name": "service",
          "type": "tuple"
        }
      ],
      "name": "register",
      "outputs": [],
      "payable": false,
      "stateMutability": "nonpayable",
      "type": "function"
    },
    {
      "constant": true,
      "inputs": [
        {
          "internalType": "string",
          "name": "id",
          "type": "string"
        }
      ],
      "name": "getService",
      "outputs": [
        {
          "components": [
            {
              "components": [
                {
                  "internalType": "string",
                  "name": "id",
                  "type": "string"
                },
                {
                  "internalType": "address",
                  "name": "manager",
                  "type": "address"
                },
                {
                  "internalType": "address",
                  "name": "serviceAccount",
                  "type": "address"
                },
                {
                  "internalType": "string",
                  "name": "companyName",
                  "type": "string"
                },
                {
                  "internalType": "string",
                  "name": "companyEmail",
                  "type": "string"
                },
                {
                  "internalType": "string",
                  "name": "companyContact",
                  "type": "string"
                },
                {
                  "internalType": "string",
                  "name": "description",
                  "type": "string"
                }
              ],
              "internalType": "struct ServiceRegistry.Header",
              "name": "header",
              "type": "tuple"
            },
            {
              "components": [
                {
                  "components": [
                    {
                      "internalType": "string",
                      "name": "image",
                      "type": "string"
                    },
                    {
                      "internalType": "string",
                      "name": "imageAccessUser",
                      "type": "string"
                    }
                  ],
                  "internalType": "struct ServiceRegistry.Container",
                  "name": "ct",
                  "type": "tuple"
                },
                {
                  "components": [
                    {
                      "internalType": "string[]",
                      "name": "location",
                      "type": "string[]"
                    },
                    {
                      "internalType": "string",
                      "name": "accessToken",
                      "type": "string"
                    },
                    {
                      "internalType": "string",
                      "name": "nodeID",
                      "type": "string"
                    },
                    {
                      "internalType": "string",
                      "name": "networkID",
                      "type": "string"
                    },
                    {
                      "internalType": "string",
                      "name": "serviceProtocol",
                      "type": "string"
                    },
                    {
                      "internalType": "string[]",
                      "name": "servicePoints",
                      "type": "string[]"
                    },
                    {
                      "internalType": "string",
                      "name": "servicePort",
                      "type": "string"
                    },
                    {
                      "internalType": "string",
                      "name": "nodeMountService",
                      "type": "string"
                    },
                    {
                      "internalType": "string",
                      "name": "nodeMountETCD",
                      "type": "string"
                    }
                  ],
                  "internalType": "struct ServiceRegistry.KubeContext",
                  "name": "kct",
                  "type": "tuple"
                }
              ],
              "internalType": "struct ServiceRegistry.Runtime",
              "name": "runtime",
              "type": "tuple"
            },
            {
              "internalType": "enum ServiceRegistry.State",
              "name": "state",
              "type": "uint8"
            },
            {
              "internalType": "uint256",
              "name": "serviceLocationIndex",
              "type": "uint256"
            },
            {
              "internalType": "uint256",
              "name": "serviceStartTime",
              "type": "uint256"
            },
            {
              "internalType": "uint256",
              "name": "serviceEndTime",
              "type": "uint256"
            }
          ],
          "internalType": "struct ServiceRegistry.Service",
          "name": "service",
          "type": "tuple"
        }
      ],
      "payable": false,
      "stateMutability": "view",
      "type": "function"
    },
    {
      "constant": false,
      "inputs": [
        {
          "internalType": "string",
          "name": "id",
          "type": "string"
        },
        {
          "components": [
            {
              "internalType": "string[]",
              "name": "location",
              "type": "string[]"
            },
            {
              "internalType": "string",
              "name": "accessToken",
              "type": "string"
            },
            {
              "internalType": "string",
              "name": "nodeID",
              "type": "string"
            },
            {
              "internalType": "string",
              "name": "networkID",
              "type": "string"
            },
            {
              "internalType": "string",
              "name": "serviceProtocol",
              "type": "string"
            },
            {
              "internalType": "string[]",
              "name": "servicePoints",
              "type": "string[]"
            },
            {
              "internalType": "string",
              "name": "servicePort",
              "type": "string"
            },
            {
              "internalType": "string",
              "name": "nodeMountService",
              "type": "string"
            },
            {
              "internalType": "string",
              "name": "nodeMountETCD",
              "type": "string"
            }
          ],
          "internalType": "struct ServiceRegistry.KubeContext",
          "name": "kubeContext",
          "type": "tuple"
        }
      ],
      "name": "updateKubeContext",
      "outputs": [],
      "payable": false,
      "stateMutability": "nonpayable",
      "type": "function"
    },
    {
      "constant": false,
      "inputs": [
        {
          "internalType": "string",
          "name": "id",
          "type": "string"
        },
        {
          "components": [
            {
              "internalType": "string",
              "name": "image",
              "type": "string"
            },
            {
              "internalType": "string",
              "name": "imageAccessUser",
              "type": "string"
            }
          ],
          "internalType": "struct ServiceRegistry.Container",
          "name": "container",
          "type": "tuple"
        }
      ],
      "name": "updateContainer",
      "outputs": [],
      "payable": false,
      "stateMutability": "nonpayable",
      "type": "function"
    },
    {
      "constant": false,
      "inputs": [
        {
          "internalType": "string",
          "name": "id",
          "type": "string"
        }
      ],
      "name": "stopService",
      "outputs": [],
      "payable": false,
      "stateMutability": "nonpayable",
      "type": "function"
    },
    {
      "constant": false,
      "inputs": [
        {
          "internalType": "string",
          "name": "id",
          "type": "string"
        },
        {
          "internalType": "uint256",
          "name": "curIndex",
          "type": "uint256"
        }
      ],
      "name": "updateServiceLocation",
      "outputs": [],
      "payable": false,
      "stateMutability": "nonpayable",
      "type": "function"
    },
    {
      "constant": true,
      "inputs": [
        {
          "internalType": "string",
          "name": "id",
          "type": "string"
        }
      ],
      "name": "getServiceLocation",
      "outputs": [
        {
          "components": [
            {
              "internalType": "string",
              "name": "serviceProtocol",
              "type": "string"
            },
            {
              "internalType": "string",
              "name": "servicePoint",
              "type": "string"
            },
            {
              "internalType": "string",
              "name": "servicePort",
              "type": "string"
            }
          ],
          "internalType": "struct ServiceRegistry.CurrentLocation",
          "name": "location",
          "type": "tuple"
        }
      ],
      "payable": false,
      "stateMutability": "view",
      "type": "function"
    }
  ],
  "bytecode": "0x608060405234801561001057600080fd5b50613748806100206000396000f3fe608060405234801561001057600080fd5b50600436106100885760003560e01c8063794758be1161005b578063794758be14610111578063c647191b14610141578063e10d61ce1461015f578063e2e355041461017b57610088565b8063162f7f7c1461008d57806356a8f483146100a95780635d591848146100c5578063736e49b2146100e1575b600080fd5b6100a760048036036100a29190810190612a0a565b610197565b005b6100c360048036036100be9190810190612ab7565b6102ee565b005b6100df60048036036100da9190810190612a4b565b61050b565b005b6100fb60048036036100f69190810190612a0a565b61065c565b6040516101089190613460565b60405180910390f35b61012b60048036036101269190810190612a0a565b610a2f565b6040516101389190613482565b60405180910390f35b610149611711565b60405161015691906132c8565b60405180910390f35b61017960048036036101749190810190612b77565b611837565b005b61019560048036036101909190810190612b23565b611c8e565b005b803373ffffffffffffffffffffffffffffffffffffffff166000826040516101bf91906132b1565b908152602001604051809103902060000160010160009054906101000a900473ffffffffffffffffffffffffffffffffffffffff1673ffffffffffffffffffffffffffffffffffffffff161461024a576040517f08c379a000000000000000000000000000000000000000000000000000000000815260040161024190613440565b60405180910390fd5b600360008360405161025c91906132b1565b908152602001604051809103902060120160006101000a81548160ff0219169083600381111561028857fe5b02179055504260008360405161029e91906132b1565b9081526020016040518091039020601501819055507f9bb5842d229eac67f028830d67e443a330e336630ba1212693461b1b691e20b8826040516102e2919061330c565b60405180910390a15050565b813373ffffffffffffffffffffffffffffffffffffffff1660008260405161031691906132b1565b908152602001604051809103902060000160010160009054906101000a900473ffffffffffffffffffffffffffffffffffffffff1673ffffffffffffffffffffffffffffffffffffffff16146103a1576040517f08c379a000000000000000000000000000000000000000000000000000000000815260040161039890613440565b60405180910390fd5b816000846040516103b291906132b1565b908152602001604051809103902060070160020160008201518160000190805190602001906103e2929190611e83565b5060208201518160010190805190602001906103ff929190611ee3565b50604082015181600201908051906020019061041c929190611ee3565b506060820151816003019080519060200190610439929190611ee3565b506080820151816004019080519060200190610456929190611ee3565b5060a0820151816005019080519060200190610473929190611e83565b5060c0820151816006019080519060200190610490929190611ee3565b5060e08201518160070190805190602001906104ad929190611ee3565b506101008201518160080190805190602001906104cb929190611ee3565b509050507f9bb5842d229eac67f028830d67e443a330e336630ba1212693461b1b691e20b8836040516104fe9190613341565b60405180910390a1505050565b813373ffffffffffffffffffffffffffffffffffffffff1660008260405161053391906132b1565b908152602001604051809103902060000160010160009054906101000a900473ffffffffffffffffffffffffffffffffffffffff1673ffffffffffffffffffffffffffffffffffffffff16146105be576040517f08c379a00000000000000000000000000000000000000000000000000000000081526004016105b590613440565b60405180910390fd5b816000846040516105cf91906132b1565b908152602001604051809103902060070160000160008201518160000190805190602001906105ff929190611ee3565b50602082015181600101908051906020019061061c929190611ee3565b509050507f9bb5842d229eac67f028830d67e443a330e336630ba1212693461b1b691e20b88360405161064f9190613376565b60405180910390a1505050565b610664611f63565b816000600381111561067257fe5b60008260405161068291906132b1565b908152602001604051809103902060120160009054906101000a900460ff1660038111156106ac57fe5b14156106ed576040517f08c379a00000000000000000000000000000000000000000000000000000000081526004016106e4906133e0565b60405180910390fd5b82600260038111156106fb57fe5b60008260405161070b91906132b1565b908152602001604051809103902060120160009054906101000a900460ff16600381111561073557fe5b14610775576040517f08c379a000000000000000000000000000000000000000000000000000000000815260040161076c90613420565b60405180910390fd5b6000808560405161078691906132b1565b908152602001604051809103902060130154905060606000866040516107ac91906132b1565b908152602001604051809103902060070160020160050182815481106107ce57fe5b906000526020600020018054600181600116156101000203166002900480601f01602080910402602001604051908101604052809291908181526020018280546001816001161561010002031660029004801561086c5780601f106108415761010080835404028352916020019161086c565b820191906000526020600020905b81548152906001019060200180831161084f57829003601f168201915b50505050509050606060008760405161088591906132b1565b90815260200160405180910390206007016002016006018054600181600116156101000203166002900480601f0160208091040260200160405190810160405280929190818152602001828054600181600116156101000203166002900480156109305780601f1061090557610100808354040283529160200191610930565b820191906000526020600020905b81548152906001019060200180831161091357829003601f168201915b50505050509050606060008860405161094991906132b1565b90815260200160405180910390206007016002016004018054600181600116156101000203166002900480601f0160208091040260200160405190810160405280929190818152602001828054600181600116156101000203166002900480156109f45780601f106109c9576101008083540402835291602001916109f4565b820191906000526020600020905b8154815290600101906020018083116109d757829003601f168201915b50505050509050610a03611f63565b604051806060016040528083815260200185815260200184815250905080975050505050505050919050565b610a37611f84565b813373ffffffffffffffffffffffffffffffffffffffff16600082604051610a5f91906132b1565b908152602001604051809103902060000160010160009054906101000a900473ffffffffffffffffffffffffffffffffffffffff1673ffffffffffffffffffffffffffffffffffffffff1614610aea576040517f08c379a0000000000000000000000000000000000000000000000000000000008152600401610ae190613440565b60405180910390fd5b600083604051610afa91906132b1565b90815260200160405180910390206040518060c0016040529081600082016040518060e0016040529081600082018054600181600116156101000203166002900480601f016020809104026020016040519081016040528092919081815260200182805460018160011615610100020316600290048015610bbc5780601f10610b9157610100808354040283529160200191610bbc565b820191906000526020600020905b815481529060010190602001808311610b9f57829003601f168201915b505050505081526020016001820160009054906101000a900473ffffffffffffffffffffffffffffffffffffffff1673ffffffffffffffffffffffffffffffffffffffff1673ffffffffffffffffffffffffffffffffffffffff1681526020016002820160009054906101000a900473ffffffffffffffffffffffffffffffffffffffff1673ffffffffffffffffffffffffffffffffffffffff1673ffffffffffffffffffffffffffffffffffffffff168152602001600382018054600181600116156101000203166002900480601f016020809104026020016040519081016040528092919081815260200182805460018160011615610100020316600290048015610d0a5780601f10610cdf57610100808354040283529160200191610d0a565b820191906000526020600020905b815481529060010190602001808311610ced57829003601f168201915b50505050508152602001600482018054600181600116156101000203166002900480601f016020809104026020016040519081016040528092919081815260200182805460018160011615610100020316600290048015610dac5780601f10610d8157610100808354040283529160200191610dac565b820191906000526020600020905b815481529060010190602001808311610d8f57829003601f168201915b50505050508152602001600582018054600181600116156101000203166002900480601f016020809104026020016040519081016040528092919081815260200182805460018160011615610100020316600290048015610e4e5780601f10610e2357610100808354040283529160200191610e4e565b820191906000526020600020905b815481529060010190602001808311610e3157829003601f168201915b50505050508152602001600682018054600181600116156101000203166002900480601f016020809104026020016040519081016040528092919081815260200182805460018160011615610100020316600290048015610ef05780601f10610ec557610100808354040283529160200191610ef0565b820191906000526020600020905b815481529060010190602001808311610ed357829003601f168201915b50505050508152505081526020016007820160405180604001604052908160008201604051806040016040529081600082018054600181600116156101000203166002900480601f016020809104026020016040519081016040528092919081815260200182805460018160011615610100020316600290048015610fb65780601f10610f8b57610100808354040283529160200191610fb6565b820191906000526020600020905b815481529060010190602001808311610f9957829003601f168201915b50505050508152602001600182018054600181600116156101000203166002900480601f0160208091040260200160405190810160405280929190818152602001828054600181600116156101000203166002900480156110585780601f1061102d57610100808354040283529160200191611058565b820191906000526020600020905b81548152906001019060200180831161103b57829003601f168201915b5050505050815250508152602001600282016040518061012001604052908160008201805480602002602001604051908101604052809291908181526020016000905b82821015611157578382906000526020600020018054600181600116156101000203166002900480601f0160208091040260200160405190810160405280929190818152602001828054600181600116156101000203166002900480156111435780601f1061111857610100808354040283529160200191611143565b820191906000526020600020905b81548152906001019060200180831161112657829003601f168201915b50505050508152602001906001019061109b565b505050508152602001600182018054600181600116156101000203166002900480601f0160208091040260200160405190810160405280929190818152602001828054600181600116156101000203166002900480156111f85780601f106111cd576101008083540402835291602001916111f8565b820191906000526020600020905b8154815290600101906020018083116111db57829003601f168201915b50505050508152602001600282018054600181600116156101000203166002900480601f01602080910402602001604051908101604052809291908181526020018280546001816001161561010002031660029004801561129a5780601f1061126f5761010080835404028352916020019161129a565b820191906000526020600020905b81548152906001019060200180831161127d57829003601f168201915b50505050508152602001600382018054600181600116156101000203166002900480601f01602080910402602001604051908101604052809291908181526020018280546001816001161561010002031660029004801561133c5780601f106113115761010080835404028352916020019161133c565b820191906000526020600020905b81548152906001019060200180831161131f57829003601f168201915b50505050508152602001600482018054600181600116156101000203166002900480601f0160208091040260200160405190810160405280929190818152602001828054600181600116156101000203166002900480156113de5780601f106113b3576101008083540402835291602001916113de565b820191906000526020600020905b8154815290600101906020018083116113c157829003601f168201915b5050505050815260200160058201805480602002602001604051908101604052809291908181526020016000905b828210156114c8578382906000526020600020018054600181600116156101000203166002900480601f0160208091040260200160405190810160405280929190818152602001828054600181600116156101000203166002900480156114b45780601f10611489576101008083540402835291602001916114b4565b820191906000526020600020905b81548152906001019060200180831161149757829003601f168201915b50505050508152602001906001019061140c565b505050508152602001600682018054600181600116156101000203166002900480601f0160208091040260200160405190810160405280929190818152602001828054600181600116156101000203166002900480156115695780601f1061153e57610100808354040283529160200191611569565b820191906000526020600020905b81548152906001019060200180831161154c57829003601f168201915b50505050508152602001600782018054600181600116156101000203166002900480601f01602080910402602001604051908101604052809291908181526020018280546001816001161561010002031660029004801561160b5780601f106115e05761010080835404028352916020019161160b565b820191906000526020600020905b8154815290600101906020018083116115ee57829003601f168201915b50505050508152602001600882018054600181600116156101000203166002900480601f0160208091040260200160405190810160405280929190818152602001828054600181600116156101000203166002900480156116ad5780601f10611682576101008083540402835291602001916116ad565b820191906000526020600020905b81548152906001019060200180831161169057829003601f168201915b5050505050815250508152505081526020016012820160009054906101000a900460ff1660038111156116dc57fe5b60038111156116e757fe5b81526020016013820154815260200160148201548152602001601582015481525050915050919050565b6060600160003373ffffffffffffffffffffffffffffffffffffffff1673ffffffffffffffffffffffffffffffffffffffff168152602001908152602001600020805480602002602001604051908101604052809291908181526020016000905b8282101561182e578382906000526020600020018054600181600116156101000203166002900480601f01602080910402602001604051908101604052809291908181526020018280546001816001161561010002031660029004801561181a5780601f106117ef5761010080835404028352916020019161181a565b820191906000526020600020905b8154815290600101906020018083116117fd57829003601f168201915b505050505081526020019060010190611772565b50505050905090565b80606081600001516000015190506000600381111561185257fe5b60008260405161186291906132b1565b908152602001604051809103902060120160009054906101000a900460ff16600381111561188c57fe5b146118cc576040517f08c379a00000000000000000000000000000000000000000000000000000000081526004016118c390613400565b60405180910390fd5b60608360000151600001519050836000826040516118ea91906132b1565b9081526020016040518091039020600082015181600001600082015181600001908051906020019061191d929190611ee3565b5060208201518160010160006101000a81548173ffffffffffffffffffffffffffffffffffffffff021916908373ffffffffffffffffffffffffffffffffffffffff16021790555060408201518160020160006101000a81548173ffffffffffffffffffffffffffffffffffffffff021916908373ffffffffffffffffffffffffffffffffffffffff16021790555060608201518160030190805190602001906119c8929190611ee3565b5060808201518160040190805190602001906119e5929190611ee3565b5060a0820151816005019080519060200190611a02929190611ee3565b5060c0820151816006019080519060200190611a1f929190611ee3565b5050506020820151816007016000820151816000016000820151816000019080519060200190611a50929190611ee3565b506020820151816001019080519060200190611a6d929190611ee3565b5050506020820151816002016000820151816000019080519060200190611a95929190611e83565b506020820151816001019080519060200190611ab2929190611ee3565b506040820151816002019080519060200190611acf929190611ee3565b506060820151816003019080519060200190611aec929190611ee3565b506080820151816004019080519060200190611b09929190611ee3565b5060a0820151816005019080519060200190611b26929190611e83565b5060c0820151816006019080519060200190611b43929190611ee3565b5060e0820151816007019080519060200190611b60929190611ee3565b50610100820151816008019080519060200190611b7e929190611ee3565b505050505060408201518160120160006101000a81548160ff02191690836003811115611ba757fe5b0217905550606082015181601301556080820151816014015560a082015181601501559050506001600085600001516020015173ffffffffffffffffffffffffffffffffffffffff1673ffffffffffffffffffffffffffffffffffffffff168152602001908152602001600020819080600181540180825580915050906001820390600052602060002001600090919290919091509080519060200190611c4f929190611fd1565b50507f0c5354bce940f3374f3999939428ffc2ba430816423bba0c70c7e25c913915f181604051611c8091906132ea565b60405180910390a150505050565b813373ffffffffffffffffffffffffffffffffffffffff16600082604051611cb691906132b1565b908152602001604051809103902060000160020160009054906101000a900473ffffffffffffffffffffffffffffffffffffffff1673ffffffffffffffffffffffffffffffffffffffff1614611d41576040517f08c379a0000000000000000000000000000000000000000000000000000000008152600401611d3890613440565b60405180910390fd5b60026003811115611d4e57fe5b600084604051611d5e91906132b1565b908152602001604051809103902060120160009054906101000a900460ff166003811115611d8857fe5b14611dd1576002600084604051611d9f91906132b1565b908152602001604051809103902060120160006101000a81548160ff02191690836003811115611dcb57fe5b02179055505b60008084604051611de291906132b1565b9081526020016040518091039020601401541415611e215742600084604051611e0b91906132b1565b9081526020016040518091039020601401819055505b81600084604051611e3291906132b1565b9081526020016040518091039020601301819055507f9bb5842d229eac67f028830d67e443a330e336630ba1212693461b1b691e20b883604051611e7691906133ab565b60405180910390a1505050565b828054828255906000526020600020908101928215611ed2579160200282015b82811115611ed1578251829080519060200190611ec1929190611ee3565b5091602001919060010190611ea3565b5b509050611edf9190612051565b5090565b828054600181600116156101000203166002900490600052602060002090601f016020900481019282601f10611f2457805160ff1916838001178555611f52565b82800160010185558215611f52579182015b82811115611f51578251825591602001919060010190611f36565b5b509050611f5f919061207d565b5090565b60405180606001604052806060815260200160608152602001606081525090565b6040518060c00160405280611f976120a2565b8152602001611fa461210b565b815260200160006003811115611fb657fe5b81526020016000815260200160008152602001600081525090565b828054600181600116156101000203166002900490600052602060002090601f016020900481019282601f1061201257805160ff1916838001178555612040565b82800160010185558215612040579182015b8281111561203f578251825591602001919060010190612024565b5b50905061204d919061207d565b5090565b61207a91905b80821115612076576000818161206d9190612131565b50600101612057565b5090565b90565b61209f91905b8082111561209b576000816000905550600101612083565b5090565b90565b6040518060e0016040528060608152602001600073ffffffffffffffffffffffffffffffffffffffff168152602001600073ffffffffffffffffffffffffffffffffffffffff168152602001606081526020016060815260200160608152602001606081525090565b604051806040016040528061211e612179565b815260200161212b612193565b81525090565b50805460018160011615610100020316600290046000825580601f106121575750612176565b601f016020900490600052602060002090810190612175919061207d565b5b50565b604051806040016040528060608152602001606081525090565b6040518061012001604052806060815260200160608152602001606081526020016060815260200160608152602001606081526020016060815260200160608152602001606081525090565b6000813590506121ee816136c7565b92915050565b600082601f83011261220557600080fd5b8135612218612213826134d1565b6134a4565b9150818183526020840193506020810190508360005b8381101561225e5781358601612244888261227d565b84526020840193506020830192505060018101905061222e565b5050505092915050565b600081359050612277816136de565b92915050565b600082601f83011261228e57600080fd5b81356122a161229c826134f9565b6134a4565b915080825260208301602083018583830111156122bd57600080fd5b6122c8838284613667565b50505092915050565b600082601f8301126122e257600080fd5b81356122f56122f082613525565b6134a4565b9150808252602083016020830185838301111561231157600080fd5b61231c838284613667565b50505092915050565b60006040828403121561233757600080fd5b61234160406134a4565b9050600082013567ffffffffffffffff81111561235d57600080fd5b6123698482850161227d565b600083015250602082013567ffffffffffffffff81111561238957600080fd5b6123958482850161227d565b60208301525092915050565b6000604082840312156123b357600080fd5b6123bd60406134a4565b9050600082013567ffffffffffffffff8111156123d957600080fd5b6123e58482850161227d565b600083015250602082013567ffffffffffffffff81111561240557600080fd5b6124118482850161227d565b60208301525092915050565b600060e0828403121561242f57600080fd5b61243960e06134a4565b9050600082013567ffffffffffffffff81111561245557600080fd5b6124618482850161227d565b6000830152506020612475848285016121df565b6020830152506040612489848285016121df565b604083015250606082013567ffffffffffffffff8111156124a957600080fd5b6124b58482850161227d565b606083015250608082013567ffffffffffffffff8111156124d557600080fd5b6124e18482850161227d565b60808301525060a082013567ffffffffffffffff81111561250157600080fd5b61250d8482850161227d565b60a08301525060c082013567ffffffffffffffff81111561252d57600080fd5b6125398482850161227d565b60c08301525092915050565b6000610120828403121561255857600080fd5b6125636101206134a4565b9050600082013567ffffffffffffffff81111561257f57600080fd5b61258b848285016121f4565b600083015250602082013567ffffffffffffffff8111156125ab57600080fd5b6125b78482850161227d565b602083015250604082013567ffffffffffffffff8111156125d757600080fd5b6125e38482850161227d565b604083015250606082013567ffffffffffffffff81111561260357600080fd5b61260f8482850161227d565b606083015250608082013567ffffffffffffffff81111561262f57600080fd5b61263b8482850161227d565b60808301525060a082013567ffffffffffffffff81111561265b57600080fd5b612667848285016121f4565b60a08301525060c082013567ffffffffffffffff81111561268757600080fd5b6126938482850161227d565b60c08301525060e082013567ffffffffffffffff8111156126b357600080fd5b6126bf8482850161227d565b60e08301525061010082013567ffffffffffffffff8111156126e057600080fd5b6126ec8482850161227d565b6101008301525092915050565b6000610120828403121561270c57600080fd5b6127176101206134a4565b9050600082013567ffffffffffffffff81111561273357600080fd5b61273f848285016121f4565b600083015250602082013567ffffffffffffffff81111561275f57600080fd5b61276b8482850161227d565b602083015250604082013567ffffffffffffffff81111561278b57600080fd5b6127978482850161227d565b604083015250606082013567ffffffffffffffff8111156127b757600080fd5b6127c38482850161227d565b606083015250608082013567ffffffffffffffff8111156127e357600080fd5b6127ef8482850161227d565b60808301525060a082013567ffffffffffffffff81111561280f57600080fd5b61281b848285016121f4565b60a08301525060c082013567ffffffffffffffff81111561283b57600080fd5b6128478482850161227d565b60c08301525060e082013567ffffffffffffffff81111561286757600080fd5b6128738482850161227d565b60e08301525061010082013567ffffffffffffffff81111561289457600080fd5b6128a08482850161227d565b6101008301525092915050565b6000604082840312156128bf57600080fd5b6128c960406134a4565b9050600082013567ffffffffffffffff8111156128e557600080fd5b6128f184828501612325565b600083015250602082013567ffffffffffffffff81111561291157600080fd5b61291d84828501612545565b60208301525092915050565b600060c0828403121561293b57600080fd5b61294560c06134a4565b9050600082013567ffffffffffffffff81111561296157600080fd5b61296d8482850161241d565b600083015250602082013567ffffffffffffffff81111561298d57600080fd5b612999848285016128ad565b60208301525060406129ad84828501612268565b60408301525060606129c1848285016129f5565b60608301525060806129d5848285016129f5565b60808301525060a06129e9848285016129f5565b60a08301525092915050565b600081359050612a04816136ee565b92915050565b600060208284031215612a1c57600080fd5b600082013567ffffffffffffffff811115612a3657600080fd5b612a42848285016122d1565b91505092915050565b60008060408385031215612a5e57600080fd5b600083013567ffffffffffffffff811115612a7857600080fd5b612a84858286016122d1565b925050602083013567ffffffffffffffff811115612aa157600080fd5b612aad858286016123a1565b9150509250929050565b60008060408385031215612aca57600080fd5b600083013567ffffffffffffffff811115612ae457600080fd5b612af0858286016122d1565b925050602083013567ffffffffffffffff811115612b0d57600080fd5b612b19858286016126f9565b9150509250929050565b60008060408385031215612b3657600080fd5b600083013567ffffffffffffffff811115612b5057600080fd5b612b5c858286016122d1565b9250506020612b6d858286016129f5565b9150509250929050565b600060208284031215612b8957600080fd5b600082013567ffffffffffffffff811115612ba357600080fd5b612baf84828501612929565b91505092915050565b6000612bc48383612d3e565b905092915050565b612bd581613606565b82525050565b6000612be68261357c565b612bf081856135c8565b935083602082028501612c0285613561565b8060005b85811015612c3e5784840389528151612c1f8582612bb8565b9450612c2a836135aa565b925060208a01995050600181019050612c06565b50829750879550505050505092915050565b6000612c5b82613571565b612c6581856135b7565b935083602082028501612c7785613551565b8060005b85811015612cb35784840389528151612c948582612bb8565b9450612c9f8361359d565b925060208a01995050600181019050612c7b565b50829750879550505050505092915050565b612cce81613655565b82525050565b6000612cdf82613592565b612ce981856135ea565b9350612cf9818560208601613676565b612d02816136a9565b840191505092915050565b6000612d1882613592565b612d2281856135fb565b9350612d32818560208601613676565b80840191505092915050565b6000612d4982613587565b612d5381856135d9565b9350612d63818560208601613676565b612d6c816136a9565b840191505092915050565b6000612d846016836135ea565b91507f5365727669636520646f6573206e6f74206578697374000000000000000000006000830152602082019050919050565b6000612dc4600c836135ea565b91507f534552564943455f53544f5000000000000000000000000000000000000000006000830152602082019050919050565b6000612e046013836135ea565b91507f534552564943455f4b554245434f4e54455854000000000000000000000000006000830152602082019050919050565b6000612e446012836135ea565b91507f416c7265616479207265676973746572656400000000000000000000000000006000830152602082019050919050565b6000612e846011836135ea565b91507f534552564943455f434f4e5441494e45520000000000000000000000000000006000830152602082019050919050565b6000612ec46010836135ea565b91507f49742773206e6f742072756e6e696e67000000000000000000000000000000006000830152602082019050919050565b6000612f046010836135ea565b91507f534552564943455f4c4f434154494f4e000000000000000000000000000000006000830152602082019050919050565b6000612f44600e836135ea565b91507f4e6f7420617574686f72697a65640000000000000000000000000000000000006000830152602082019050919050565b60006040830160008301518482036000860152612f948282612d3e565b91505060208301518482036020860152612fae8282612d3e565b9150508091505092915050565b60006060830160008301518482036000860152612fd88282612d3e565b91505060208301518482036020860152612ff28282612d3e565b9150506040830151848203604086015261300c8282612d3e565b9150508091505092915050565b600060e08301600083015184820360008601526130368282612d3e565b915050602083015161304b6020860182612bcc565b50604083015161305e6040860182612bcc565b50606083015184820360608601526130768282612d3e565b915050608083015184820360808601526130908282612d3e565b91505060a083015184820360a08601526130aa8282612d3e565b91505060c083015184820360c08601526130c48282612d3e565b9150508091505092915050565b60006101208301600083015184820360008601526130ef8282612c50565b915050602083015184820360208601526131098282612d3e565b915050604083015184820360408601526131238282612d3e565b9150506060830151848203606086015261313d8282612d3e565b915050608083015184820360808601526131578282612d3e565b91505060a083015184820360a08601526131718282612c50565b91505060c083015184820360c086015261318b8282612d3e565b91505060e083015184820360e08601526131a58282612d3e565b9150506101008301518482036101008601526131c18282612d3e565b9150508091505092915050565b600060408301600083015184820360008601526131eb8282612f77565b9150506020830151848203602086015261320582826130d1565b9150508091505092915050565b600060c083016000830151848203600086015261322f8282613019565b9150506020830151848203602086015261324982826131ce565b915050604083015161325e6040860182612cc5565b50606083015161327160608601826132a2565b50608083015161328460808601826132a2565b5060a083015161329760a08601826132a2565b508091505092915050565b6132ab8161364b565b82525050565b60006132bd8284612d0d565b915081905092915050565b600060208201905081810360008301526132e28184612bdb565b905092915050565b600060208201905081810360008301526133048184612cd4565b905092915050565b600060408201905081810360008301526133268184612cd4565b9050818103602083015261333981612db7565b905092915050565b6000604082019050818103600083015261335b8184612cd4565b9050818103602083015261336e81612df7565b905092915050565b600060408201905081810360008301526133908184612cd4565b905081810360208301526133a381612e77565b905092915050565b600060408201905081810360008301526133c58184612cd4565b905081810360208301526133d881612ef7565b905092915050565b600060208201905081810360008301526133f981612d77565b9050919050565b6000602082019050818103600083015261341981612e37565b9050919050565b6000602082019050818103600083015261343981612eb7565b9050919050565b6000602082019050818103600083015261345981612f37565b9050919050565b6000602082019050818103600083015261347a8184612fbb565b905092915050565b6000602082019050818103600083015261349c8184613212565b905092915050565b6000604051905081810181811067ffffffffffffffff821117156134c757600080fd5b8060405250919050565b600067ffffffffffffffff8211156134e857600080fd5b602082029050602081019050919050565b600067ffffffffffffffff82111561351057600080fd5b601f19601f8301169050602081019050919050565b600067ffffffffffffffff82111561353c57600080fd5b601f19601f8301169050602081019050919050565b6000819050602082019050919050565b6000819050602082019050919050565b600081519050919050565b600081519050919050565b600081519050919050565b600081519050919050565b6000602082019050919050565b6000602082019050919050565b600082825260208201905092915050565b600082825260208201905092915050565b600082825260208201905092915050565b600082825260208201905092915050565b600081905092915050565b60006136118261362b565b9050919050565b6000819050613626826136ba565b919050565b600073ffffffffffffffffffffffffffffffffffffffff82169050919050565b6000819050919050565b600061366082613618565b9050919050565b82818337600083830152505050565b60005b83811015613694578082015181840152602081019050613679565b838111156136a3576000848401525b50505050565b6000601f19601f8301169050919050565b600481106136c457fe5b50565b6136d081613606565b81146136db57600080fd5b50565b600481106136eb57600080fd5b50565b6136f78161364b565b811461370257600080fd5b5056fea365627a7a7231582095434dbe6edbb2e30233f9a3f26566f57bbc392a4f765f6772dfded48dc374966c6578706572696d656e74616cf564736f6c63430005100040",
  "source": "pragma solidity >=0.4.22 <0.7.0;\npragma experimental ABIEncoderV2;\n\n\ncontract ServiceRegistry {\n\n    enum State { Null, Ready, Running, Stop }\n\n    struct CurrentLocation{\n      string serviceProtocol;\n      string servicePoint;\n      string servicePort;\n    }\n\n    struct Header{\n        string id;\n        address manager;\n        address serviceAccount;\n        string companyName;\n        string companyEmail;\n        string companyContact;\n        string description;\n    }\n    \n    struct KubeContext{\n        string[] location;\n        string accessToken;\n        string nodeID;\n        string networkID;\n        string serviceProtocol;\n        string[] servicePoints;\n        string servicePort;\n        string nodeMountService;\n        string nodeMountETCD;\n    }\n\n    struct Container{\n        string image;\n        string imageAccessUser;\n    }\n    \n    struct Runtime{\n        Container ct;\n        KubeContext kct;\n    }\n    \n    struct Service{\n        Header header;\n        Runtime runtime;\n        State state;\n        uint256 serviceLocationIndex;\n        uint256 serviceStartTime;\n        uint256 serviceEndTime;\n    }\n    \n    event ChangeService(string serviceID, string changeType);\n    event NewService(string serviceID);\n    \n    mapping (string => Service) services;\n    mapping (address => string[]) managerServiceList; // string[]: array of service name \n    \n    \n    modifier onlyManager(string memory id){\n        require(services[id].header.manager == msg.sender, \"Not authorized\");\n        _;\n    }\n    \n    modifier onlyServiceAccount(string memory id){\n        require(services[id].header.serviceAccount == msg.sender, \"Not authorized\");\n        _;\n    }\n    \n    modifier hasNotService(Service memory service){\n        string memory id = service.header.id;\n        require(services[id].state == State.Null, \"Already registered\");\n        _;\n    }\n    \n    modifier hasService(string memory serviceID){\n        require(services[serviceID].state != State.Null, \"Service does not exist\");\n        _;\n    }\n\n    modifier isRunning(string memory serviceID){\n        require(services[serviceID].state == State.Running, \"It's not running\");\n        _;\n    }\n    \n\n    /* Manager service list*/\n    function getServiceList()\n    public view returns(string[] memory)\n    {\n        return managerServiceList[msg.sender];\n    }\n\n\n    /* Service Manager */\n    function register(Service memory service) \n    public hasNotService(service)\n    {\n        string memory id = service.header.id;\n        services[id] = service;\n        managerServiceList[service.header.manager].push(id);\n        emit NewService(id);\n    }\n    \n    /* Service Manager */\n    function getService(string memory id) \n    public view onlyManager(id)\n    returns (Service memory service)\n    {\n        return services[id];\n    }    \n    \n    /* Service Manager */\n    function updateKubeContext(string memory id, KubeContext memory kubeContext) \n    public onlyManager(id)\n    {\n        services[id].runtime.kct = kubeContext;\n        emit ChangeService(id, \"SERVICE_KUBECONTEXT\");\n    }\n    \n    /* Service Manager */\n    function updateContainer(string memory id, Container memory container) \n    public onlyManager(id)\n    {\n        services[id].runtime.ct = container;\n        emit ChangeService(id, \"SERVICE_CONTAINER\");\n    }\n    \n    /* Service Manager */\n    function stopService(string memory id) \n    public onlyManager(id)\n    {\n        services[id].state = State.Stop;\n        services[id].serviceEndTime = now;\n        emit ChangeService(id, \"SERVICE_STOP\");\n    }\n    \n    \n    /* Leader Service */\n    function updateServiceLocation(string memory id, uint256 curIndex) \n    public onlyServiceAccount(id)\n    {\n        if(services[id].state != State.Running){\n            services[id].state = State.Running;\n        }\n        if(services[id].serviceStartTime == 0){\n            services[id].serviceStartTime = now;\n        } \n        services[id].serviceLocationIndex = curIndex;\n        emit ChangeService(id, \"SERVICE_LOCATION\");\n    }\n    \n    \n    /* Service Client */\n    function getServiceLocation(string memory id) \n    public view hasService(id) isRunning(id)\n    returns (CurrentLocation memory location)\n    {\n        uint256 index = services[id].serviceLocationIndex;\n\t    string memory point = services[id].runtime.kct.servicePoints[index];\n\t    string memory port = services[id].runtime.kct.servicePort;\n        string memory protocol = services[id].runtime.kct.serviceProtocol;\n\t    CurrentLocation memory curLocation = CurrentLocation(protocol, point, port);\n        return curLocation;\n    }\n\n}\n\n\n",
  "sourcePath": "/home/pslabmh/Kube-Replica_Research/service-registry/contracts/ServiceRegistry.sol",
  "compiler": {
    "name": "solc",
    "version": "0.5.16+commit.9c3226ce.Emscripten.clang"
  },
  "schemaVersion": "3.3.2",
  "updatedAt": "2020-12-07T01:53:22.826Z",
  "networkType": "ethereum",
  "devdoc": {
    "methods": {}
  },
  "userdoc": {
    "methods": {}
  }
}