{
  "contractName": "ServiceRegistry",
  "abi": [
    {
      "anonymous": false,
      "inputs": [
        {
          "indexed": false,
          "internalType": "string",
          "name": "serviceID",
          "type": "string"
        },
        {
          "indexed": false,
          "internalType": "string",
          "name": "changeType",
          "type": "string"
        }
      ],
      "name": "ChangeService",
      "type": "event"
    },
    {
      "anonymous": false,
      "inputs": [
        {
          "indexed": false,
          "internalType": "string",
          "name": "serviceID",
          "type": "string"
        }
      ],
      "name": "NewService",
      "type": "event"
    },
    {
      "inputs": [],
      "name": "getServiceList",
      "outputs": [
        {
          "internalType": "string[]",
          "name": "",
          "type": "string[]"
        }
      ],
      "stateMutability": "view",
      "type": "function",
      "constant": true
    },
    {
      "inputs": [
        {
          "components": [
            {
              "components": [
                {
                  "internalType": "string",
                  "name": "id",
                  "type": "string"
                },
                {
                  "internalType": "address",
                  "name": "manager",
                  "type": "address"
                },
                {
                  "internalType": "address",
                  "name": "serviceAccount",
                  "type": "address"
                },
                {
                  "internalType": "string",
                  "name": "companyName",
                  "type": "string"
                },
                {
                  "internalType": "string",
                  "name": "companyEmail",
                  "type": "string"
                },
                {
                  "internalType": "string",
                  "name": "companyContact",
                  "type": "string"
                },
                {
                  "internalType": "string",
                  "name": "description",
                  "type": "string"
                }
              ],
              "internalType": "struct ServiceRegistry.Header",
              "name": "header",
              "type": "tuple"
            },
            {
              "components": [
                {
                  "components": [
                    {
                      "internalType": "string",
                      "name": "image",
                      "type": "string"
                    },
                    {
                      "internalType": "string",
                      "name": "imageAccessUser",
                      "type": "string"
                    }
                  ],
                  "internalType": "struct ServiceRegistry.Container",
                  "name": "ct",
                  "type": "tuple"
                },
                {
                  "components": [
                    {
                      "internalType": "string[]",
                      "name": "location",
                      "type": "string[]"
                    },
                    {
                      "internalType": "string",
                      "name": "accessToken",
                      "type": "string"
                    },
                    {
                      "internalType": "string",
                      "name": "nodeID",
                      "type": "string"
                    },
                    {
                      "internalType": "string",
                      "name": "networkID",
                      "type": "string"
                    },
                    {
                      "internalType": "string",
                      "name": "serviceProtocol",
                      "type": "string"
                    },
                    {
                      "internalType": "string[]",
                      "name": "servicePoints",
                      "type": "string[]"
                    },
                    {
                      "internalType": "string",
                      "name": "servicePort",
                      "type": "string"
                    },
                    {
                      "internalType": "string",
                      "name": "nodeMountService",
                      "type": "string"
                    },
                    {
                      "internalType": "string",
                      "name": "nodeMountETCD",
                      "type": "string"
                    },
                    {
                      "internalType": "string",
                      "name": "secret",
                      "type": "string"
                    }
                  ],
                  "internalType": "struct ServiceRegistry.KubeContext",
                  "name": "kct",
                  "type": "tuple"
                }
              ],
              "internalType": "struct ServiceRegistry.Runtime",
              "name": "runtime",
              "type": "tuple"
            },
            {
              "components": [
                {
                  "internalType": "string[]",
                  "name": "logs",
                  "type": "string[]"
                }
              ],
              "internalType": "struct ServiceRegistry.Backup",
              "name": "backup",
              "type": "tuple"
            },
            {
              "internalType": "enum ServiceRegistry.State",
              "name": "state",
              "type": "uint8"
            },
            {
              "internalType": "uint256",
              "name": "curReplicas",
              "type": "uint256"
            },
            {
              "internalType": "uint256",
              "name": "serviceLocationIndex",
              "type": "uint256"
            },
            {
              "internalType": "uint256",
              "name": "serviceStartTime",
              "type": "uint256"
            },
            {
              "internalType": "uint256",
              "name": "serviceEndTime",
              "type": "uint256"
            }
          ],
          "internalType": "struct ServiceRegistry.Service",
          "name": "service",
          "type": "tuple"
        }
      ],
      "name": "register",
      "outputs": [],
      "stateMutability": "nonpayable",
      "type": "function"
    },
    {
      "inputs": [
        {
          "internalType": "string",
          "name": "id",
          "type": "string"
        },
        {
          "internalType": "string",
          "name": "secret",
          "type": "string"
        },
        {
          "internalType": "uint256",
          "name": "replicas",
          "type": "uint256"
        }
      ],
      "name": "startService",
      "outputs": [],
      "stateMutability": "nonpayable",
      "type": "function"
    },
    {
      "inputs": [
        {
          "internalType": "string",
          "name": "id",
          "type": "string"
        },
        {
          "internalType": "uint256",
          "name": "replicas",
          "type": "uint256"
        }
      ],
      "name": "updateReplicas",
      "outputs": [],
      "stateMutability": "nonpayable",
      "type": "function"
    },
    {
      "inputs": [
        {
          "internalType": "string",
          "name": "id",
          "type": "string"
        }
      ],
      "name": "getService",
      "outputs": [
        {
          "components": [
            {
              "components": [
                {
                  "internalType": "string",
                  "name": "id",
                  "type": "string"
                },
                {
                  "internalType": "address",
                  "name": "manager",
                  "type": "address"
                },
                {
                  "internalType": "address",
                  "name": "serviceAccount",
                  "type": "address"
                },
                {
                  "internalType": "string",
                  "name": "companyName",
                  "type": "string"
                },
                {
                  "internalType": "string",
                  "name": "companyEmail",
                  "type": "string"
                },
                {
                  "internalType": "string",
                  "name": "companyContact",
                  "type": "string"
                },
                {
                  "internalType": "string",
                  "name": "description",
                  "type": "string"
                }
              ],
              "internalType": "struct ServiceRegistry.Header",
              "name": "header",
              "type": "tuple"
            },
            {
              "components": [
                {
                  "components": [
                    {
                      "internalType": "string",
                      "name": "image",
                      "type": "string"
                    },
                    {
                      "internalType": "string",
                      "name": "imageAccessUser",
                      "type": "string"
                    }
                  ],
                  "internalType": "struct ServiceRegistry.Container",
                  "name": "ct",
                  "type": "tuple"
                },
                {
                  "components": [
                    {
                      "internalType": "string[]",
                      "name": "location",
                      "type": "string[]"
                    },
                    {
                      "internalType": "string",
                      "name": "accessToken",
                      "type": "string"
                    },
                    {
                      "internalType": "string",
                      "name": "nodeID",
                      "type": "string"
                    },
                    {
                      "internalType": "string",
                      "name": "networkID",
                      "type": "string"
                    },
                    {
                      "internalType": "string",
                      "name": "serviceProtocol",
                      "type": "string"
                    },
                    {
                      "internalType": "string[]",
                      "name": "servicePoints",
                      "type": "string[]"
                    },
                    {
                      "internalType": "string",
                      "name": "servicePort",
                      "type": "string"
                    },
                    {
                      "internalType": "string",
                      "name": "nodeMountService",
                      "type": "string"
                    },
                    {
                      "internalType": "string",
                      "name": "nodeMountETCD",
                      "type": "string"
                    },
                    {
                      "internalType": "string",
                      "name": "secret",
                      "type": "string"
                    }
                  ],
                  "internalType": "struct ServiceRegistry.KubeContext",
                  "name": "kct",
                  "type": "tuple"
                }
              ],
              "internalType": "struct ServiceRegistry.Runtime",
              "name": "runtime",
              "type": "tuple"
            },
            {
              "components": [
                {
                  "internalType": "string[]",
                  "name": "logs",
                  "type": "string[]"
                }
              ],
              "internalType": "struct ServiceRegistry.Backup",
              "name": "backup",
              "type": "tuple"
            },
            {
              "internalType": "enum ServiceRegistry.State",
              "name": "state",
              "type": "uint8"
            },
            {
              "internalType": "uint256",
              "name": "curReplicas",
              "type": "uint256"
            },
            {
              "internalType": "uint256",
              "name": "serviceLocationIndex",
              "type": "uint256"
            },
            {
              "internalType": "uint256",
              "name": "serviceStartTime",
              "type": "uint256"
            },
            {
              "internalType": "uint256",
              "name": "serviceEndTime",
              "type": "uint256"
            }
          ],
          "internalType": "struct ServiceRegistry.Service",
          "name": "service",
          "type": "tuple"
        }
      ],
      "stateMutability": "view",
      "type": "function",
      "constant": true
    },
    {
      "inputs": [
        {
          "internalType": "string",
          "name": "id",
          "type": "string"
        },
        {
          "components": [
            {
              "internalType": "string[]",
              "name": "location",
              "type": "string[]"
            },
            {
              "internalType": "string",
              "name": "accessToken",
              "type": "string"
            },
            {
              "internalType": "string",
              "name": "nodeID",
              "type": "string"
            },
            {
              "internalType": "string",
              "name": "networkID",
              "type": "string"
            },
            {
              "internalType": "string",
              "name": "serviceProtocol",
              "type": "string"
            },
            {
              "internalType": "string[]",
              "name": "servicePoints",
              "type": "string[]"
            },
            {
              "internalType": "string",
              "name": "servicePort",
              "type": "string"
            },
            {
              "internalType": "string",
              "name": "nodeMountService",
              "type": "string"
            },
            {
              "internalType": "string",
              "name": "nodeMountETCD",
              "type": "string"
            },
            {
              "internalType": "string",
              "name": "secret",
              "type": "string"
            }
          ],
          "internalType": "struct ServiceRegistry.KubeContext",
          "name": "kubeContext",
          "type": "tuple"
        }
      ],
      "name": "updateKubeContext",
      "outputs": [],
      "stateMutability": "nonpayable",
      "type": "function"
    },
    {
      "inputs": [
        {
          "internalType": "string",
          "name": "id",
          "type": "string"
        },
        {
          "components": [
            {
              "internalType": "string",
              "name": "image",
              "type": "string"
            },
            {
              "internalType": "string",
              "name": "imageAccessUser",
              "type": "string"
            }
          ],
          "internalType": "struct ServiceRegistry.Container",
          "name": "container",
          "type": "tuple"
        }
      ],
      "name": "updateContainer",
      "outputs": [],
      "stateMutability": "nonpayable",
      "type": "function"
    },
    {
      "inputs": [
        {
          "internalType": "string",
          "name": "id",
          "type": "string"
        }
      ],
      "name": "pauseService",
      "outputs": [],
      "stateMutability": "nonpayable",
      "type": "function"
    },
    {
      "inputs": [
        {
          "internalType": "string",
          "name": "id",
          "type": "string"
        }
      ],
      "name": "stopService",
      "outputs": [],
      "stateMutability": "nonpayable",
      "type": "function"
    },
    {
      "inputs": [
        {
          "internalType": "string",
          "name": "id",
          "type": "string"
        },
        {
          "internalType": "string",
          "name": "log",
          "type": "string"
        }
      ],
      "name": "backupLog",
      "outputs": [],
      "stateMutability": "nonpayable",
      "type": "function"
    },
    {
      "inputs": [
        {
          "internalType": "string",
          "name": "id",
          "type": "string"
        }
      ],
      "name": "getLatestBackupLog",
      "outputs": [
        {
          "internalType": "string",
          "name": "log",
          "type": "string"
        }
      ],
      "stateMutability": "view",
      "type": "function",
      "constant": true
    },
    {
      "inputs": [
        {
          "internalType": "string",
          "name": "id",
          "type": "string"
        }
      ],
      "name": "getAllBackupKey",
      "outputs": [
        {
          "internalType": "string[]",
          "name": "logs",
          "type": "string[]"
        }
      ],
      "stateMutability": "view",
      "type": "function",
      "constant": true
    },
    {
      "inputs": [
        {
          "internalType": "string",
          "name": "id",
          "type": "string"
        },
        {
          "internalType": "uint256",
          "name": "curIndex",
          "type": "uint256"
        }
      ],
      "name": "updateServiceLocation",
      "outputs": [],
      "stateMutability": "nonpayable",
      "type": "function"
    },
    {
      "inputs": [
        {
          "internalType": "string",
          "name": "id",
          "type": "string"
        }
      ],
      "name": "getServiceLocation",
      "outputs": [
        {
          "internalType": "string",
          "name": "protocol",
          "type": "string"
        },
        {
          "internalType": "string",
          "name": "point",
          "type": "string"
        },
        {
          "internalType": "string",
          "name": "port",
          "type": "string"
        }
      ],
      "stateMutability": "view",
      "type": "function",
      "constant": true
    }
  ],
  "bytecode": "0x608060405234801561001057600080fd5b50614350806100206000396000f3fe608060405234801561001057600080fd5b50600436106100ea5760003560e01c8063a066515f1161008c578063bd9e014511610066578063bd9e014514610245578063c647191b14610261578063cd8004931461027f578063e2e35504146102af576100ea565b8063a066515f146101f1578063b45bd5e51461020d578063b8025b5714610229576100ea565b80635d591848116100c85780635d59184814610157578063736e49b214610173578063794758be146101a557806399a0f0af146101d5576100ea565b8063162f7f7c146100ef5780634d87aaf41461010b57806354e016b51461013b575b600080fd5b6101096004803603810190610104919061336a565b6102cb565b005b6101256004803603810190610120919061336a565b610422565b6040516101329190613e4b565b60405180910390f35b610155600480360381019061015091906135c2565b610628565b005b610171600480360381019061016c9190613496565b610acc565b005b61018d6004803603810190610188919061336a565b610c1d565b60405161019c93929190613e6d565b60405180910390f35b6101bf60048036038101906101ba919061336a565b610fbd565b6040516101cc91906140e1565b60405180910390f35b6101ef60048036038101906101ea9190613417565b611e49565b005b61020b600480360381019061020691906133ab565b612004565b005b6102276004803603810190610222919061336a565b612151565b005b610243600480360381019061023e9190613502565b6122a8565b005b61025f600480360381019061025a919061356e565b6124e3565b005b6102696125f8565b6040516102769190613e29565b60405180910390f35b6102996004803603810190610294919061336a565b61271e565b6040516102a69190613e29565b60405180910390f35b6102c960048036038101906102c4919061356e565b6128df565b005b803373ffffffffffffffffffffffffffffffffffffffff166000826040516102f39190613e12565b908152602001604051809103902060000160010160009054906101000a900473ffffffffffffffffffffffffffffffffffffffff1673ffffffffffffffffffffffffffffffffffffffff161461037e576040517f08c379a0000000000000000000000000000000000000000000000000000000008152600401610375906140c1565b60405180910390fd5b60036000836040516103909190613e12565b908152602001604051809103902060140160006101000a81548160ff021916908360038111156103bc57fe5b0217905550426000836040516103d29190613e12565b9081526020016040518091039020601801819055507f9bb5842d229eac67f028830d67e443a330e336630ba1212693461b1b691e20b8826040516104169190613eee565b60405180910390a15050565b6060813373ffffffffffffffffffffffffffffffffffffffff1660008260405161044c9190613e12565b908152602001604051809103902060000160020160009054906101000a900473ffffffffffffffffffffffffffffffffffffffff1673ffffffffffffffffffffffffffffffffffffffff16146104d7576040517f08c379a00000000000000000000000000000000000000000000000000000000081526004016104ce906140c1565b60405180910390fd5b600080846040516104e89190613e12565b90815260200160405180910390206013016000018054905090506000811415610549576040518060400160405280600581526020017f656d707479000000000000000000000000000000000000000000000000000000815250925050610622565b6000846040516105599190613e12565b9081526020016040518091039020601301600001600182038154811061057b57fe5b906000526020600020018054600181600116156101000203166002900480601f0160208091040260200160405190810160405280929190818152602001828054600181600116156101000203166002900480156106195780601f106105ee57610100808354040283529160200191610619565b820191906000526020600020905b8154815290600101906020018083116105fc57829003601f168201915b50505050509250505b50919050565b80600081600001516000015190506000600381111561064357fe5b6000826040516106539190613e12565b908152602001604051809103902060140160009054906101000a900460ff16600381111561067d57fe5b146106bd576040517f08c379a00000000000000000000000000000000000000000000000000000000081526004016106b490614081565b60405180910390fd5b60008360000151600001519050836000826040516106db9190613e12565b9081526020016040518091039020600082015181600001600082015181600001908051906020019061070e9291906129f4565b5060208201518160010160006101000a81548173ffffffffffffffffffffffffffffffffffffffff021916908373ffffffffffffffffffffffffffffffffffffffff16021790555060408201518160020160006101000a81548173ffffffffffffffffffffffffffffffffffffffff021916908373ffffffffffffffffffffffffffffffffffffffff16021790555060608201518160030190805190602001906107b99291906129f4565b5060808201518160040190805190602001906107d69291906129f4565b5060a08201518160050190805190602001906107f39291906129f4565b5060c08201518160060190805190602001906108109291906129f4565b50505060208201518160070160008201518160000160008201518160000190805190602001906108419291906129f4565b50602082015181600101908051906020019061085e9291906129f4565b5050506020820151816002016000820151816000019080519060200190610886929190612a82565b5060208201518160010190805190602001906108a39291906129f4565b5060408201518160020190805190602001906108c09291906129f4565b5060608201518160030190805190602001906108dd9291906129f4565b5060808201518160040190805190602001906108fa9291906129f4565b5060a0820151816005019080519060200190610917929190612a82565b5060c08201518160060190805190602001906109349291906129f4565b5060e08201518160070190805190602001906109519291906129f4565b5061010082015181600801908051906020019061096f9291906129f4565b5061012082015181600901908051906020019061098d9291906129f4565b505050505060408201518160130160008201518160000190805190602001906109b7929190612a82565b50505060608201518160140160006101000a81548160ff021916908360038111156109de57fe5b02179055506080820151816015015560a0820151816016015560c0820151816017015560e082015181601801559050506001600085600001516020015173ffffffffffffffffffffffffffffffffffffffff1673ffffffffffffffffffffffffffffffffffffffff16815260200190815260200160002081908060018154018082558091505060019003906000526020600020016000909190919091509080519060200190610a8e9291906129f4565b507f0c5354bce940f3374f3999939428ffc2ba430816423bba0c70c7e25c913915f181604051610abe9190613e4b565b60405180910390a150505050565b813373ffffffffffffffffffffffffffffffffffffffff16600082604051610af49190613e12565b908152602001604051809103902060000160010160009054906101000a900473ffffffffffffffffffffffffffffffffffffffff1673ffffffffffffffffffffffffffffffffffffffff1614610b7f576040517f08c379a0000000000000000000000000000000000000000000000000000000008152600401610b76906140c1565b60405180910390fd5b81600084604051610b909190613e12565b90815260200160405180910390206007016000016000820151816000019080519060200190610bc09291906129f4565b506020820151816001019080519060200190610bdd9291906129f4565b509050507f9bb5842d229eac67f028830d67e443a330e336630ba1212693461b1b691e20b883604051610c109190613f8d565b60405180910390a1505050565b60608060608360006003811115610c3057fe5b600082604051610c409190613e12565b908152602001604051809103902060140160009054906101000a900460ff166003811115610c6a57fe5b1415610cab576040517f08c379a0000000000000000000000000000000000000000000000000000000008152600401610ca290614061565b60405180910390fd5b8460026003811115610cb957fe5b600082604051610cc99190613e12565b908152602001604051809103902060140160009054906101000a900460ff166003811115610cf357fe5b14610d33576040517f08c379a0000000000000000000000000000000000000000000000000000000008152600401610d2a906140a1565b60405180910390fd5b60008087604051610d449190613e12565b9081526020016040518091039020601601549050600087604051610d689190613e12565b90815260200160405180910390206007016002016005018181548110610d8a57fe5b906000526020600020018054600181600116156101000203166002900480601f016020809104026020016040519081016040528092919081815260200182805460018160011615610100020316600290048015610e285780601f10610dfd57610100808354040283529160200191610e28565b820191906000526020600020905b815481529060010190602001808311610e0b57829003601f168201915b50505050509450600087604051610e3f9190613e12565b90815260200160405180910390206007016002016006018054600181600116156101000203166002900480601f016020809104026020016040519081016040528092919081815260200182805460018160011615610100020316600290048015610eea5780601f10610ebf57610100808354040283529160200191610eea565b820191906000526020600020905b815481529060010190602001808311610ecd57829003601f168201915b50505050509350600087604051610f019190613e12565b90815260200160405180910390206007016002016004018054600181600116156101000203166002900480601f016020809104026020016040519081016040528092919081815260200182805460018160011615610100020316600290048015610fac5780601f10610f8157610100808354040283529160200191610fac565b820191906000526020600020905b815481529060010190602001808311610f8f57829003601f168201915b505050505095505050509193909250565b610fc5612ae2565b813373ffffffffffffffffffffffffffffffffffffffff16600082604051610fed9190613e12565b908152602001604051809103902060000160010160009054906101000a900473ffffffffffffffffffffffffffffffffffffffff1673ffffffffffffffffffffffffffffffffffffffff1614611078576040517f08c379a000000000000000000000000000000000000000000000000000000000815260040161106f906140c1565b60405180910390fd5b6000836040516110889190613e12565b908152602001604051809103902060405180610100016040529081600082016040518060e0016040529081600082018054600181600116156101000203166002900480601f01602080910402602001604051908101604052809291908181526020018280546001816001161561010002031660029004801561114b5780601f106111205761010080835404028352916020019161114b565b820191906000526020600020905b81548152906001019060200180831161112e57829003601f168201915b505050505081526020016001820160009054906101000a900473ffffffffffffffffffffffffffffffffffffffff1673ffffffffffffffffffffffffffffffffffffffff1673ffffffffffffffffffffffffffffffffffffffff1681526020016002820160009054906101000a900473ffffffffffffffffffffffffffffffffffffffff1673ffffffffffffffffffffffffffffffffffffffff1673ffffffffffffffffffffffffffffffffffffffff168152602001600382018054600181600116156101000203166002900480601f0160208091040260200160405190810160405280929190818152602001828054600181600116156101000203166002900480156112995780601f1061126e57610100808354040283529160200191611299565b820191906000526020600020905b81548152906001019060200180831161127c57829003601f168201915b50505050508152602001600482018054600181600116156101000203166002900480601f01602080910402602001604051908101604052809291908181526020018280546001816001161561010002031660029004801561133b5780601f106113105761010080835404028352916020019161133b565b820191906000526020600020905b81548152906001019060200180831161131e57829003601f168201915b50505050508152602001600582018054600181600116156101000203166002900480601f0160208091040260200160405190810160405280929190818152602001828054600181600116156101000203166002900480156113dd5780601f106113b2576101008083540402835291602001916113dd565b820191906000526020600020905b8154815290600101906020018083116113c057829003601f168201915b50505050508152602001600682018054600181600116156101000203166002900480601f01602080910402602001604051908101604052809291908181526020018280546001816001161561010002031660029004801561147f5780601f106114545761010080835404028352916020019161147f565b820191906000526020600020905b81548152906001019060200180831161146257829003601f168201915b50505050508152505081526020016007820160405180604001604052908160008201604051806040016040529081600082018054600181600116156101000203166002900480601f0160208091040260200160405190810160405280929190818152602001828054600181600116156101000203166002900480156115455780601f1061151a57610100808354040283529160200191611545565b820191906000526020600020905b81548152906001019060200180831161152857829003601f168201915b50505050508152602001600182018054600181600116156101000203166002900480601f0160208091040260200160405190810160405280929190818152602001828054600181600116156101000203166002900480156115e75780601f106115bc576101008083540402835291602001916115e7565b820191906000526020600020905b8154815290600101906020018083116115ca57829003601f168201915b5050505050815250508152602001600282016040518061014001604052908160008201805480602002602001604051908101604052809291908181526020016000905b828210156116e6578382906000526020600020018054600181600116156101000203166002900480601f0160208091040260200160405190810160405280929190818152602001828054600181600116156101000203166002900480156116d25780601f106116a7576101008083540402835291602001916116d2565b820191906000526020600020905b8154815290600101906020018083116116b557829003601f168201915b50505050508152602001906001019061162a565b505050508152602001600182018054600181600116156101000203166002900480601f0160208091040260200160405190810160405280929190818152602001828054600181600116156101000203166002900480156117875780601f1061175c57610100808354040283529160200191611787565b820191906000526020600020905b81548152906001019060200180831161176a57829003601f168201915b50505050508152602001600282018054600181600116156101000203166002900480601f0160208091040260200160405190810160405280929190818152602001828054600181600116156101000203166002900480156118295780601f106117fe57610100808354040283529160200191611829565b820191906000526020600020905b81548152906001019060200180831161180c57829003601f168201915b50505050508152602001600382018054600181600116156101000203166002900480601f0160208091040260200160405190810160405280929190818152602001828054600181600116156101000203166002900480156118cb5780601f106118a0576101008083540402835291602001916118cb565b820191906000526020600020905b8154815290600101906020018083116118ae57829003601f168201915b50505050508152602001600482018054600181600116156101000203166002900480601f01602080910402602001604051908101604052809291908181526020018280546001816001161561010002031660029004801561196d5780601f106119425761010080835404028352916020019161196d565b820191906000526020600020905b81548152906001019060200180831161195057829003601f168201915b5050505050815260200160058201805480602002602001604051908101604052809291908181526020016000905b82821015611a57578382906000526020600020018054600181600116156101000203166002900480601f016020809104026020016040519081016040528092919081815260200182805460018160011615610100020316600290048015611a435780601f10611a1857610100808354040283529160200191611a43565b820191906000526020600020905b815481529060010190602001808311611a2657829003601f168201915b50505050508152602001906001019061199b565b505050508152602001600682018054600181600116156101000203166002900480601f016020809104026020016040519081016040528092919081815260200182805460018160011615610100020316600290048015611af85780601f10611acd57610100808354040283529160200191611af8565b820191906000526020600020905b815481529060010190602001808311611adb57829003601f168201915b50505050508152602001600782018054600181600116156101000203166002900480601f016020809104026020016040519081016040528092919081815260200182805460018160011615610100020316600290048015611b9a5780601f10611b6f57610100808354040283529160200191611b9a565b820191906000526020600020905b815481529060010190602001808311611b7d57829003601f168201915b50505050508152602001600882018054600181600116156101000203166002900480601f016020809104026020016040519081016040528092919081815260200182805460018160011615610100020316600290048015611c3c5780601f10611c1157610100808354040283529160200191611c3c565b820191906000526020600020905b815481529060010190602001808311611c1f57829003601f168201915b50505050508152602001600982018054600181600116156101000203166002900480601f016020809104026020016040519081016040528092919081815260200182805460018160011615610100020316600290048015611cde5780601f10611cb357610100808354040283529160200191611cde565b820191906000526020600020905b815481529060010190602001808311611cc157829003601f168201915b5050505050815250508152505081526020016013820160405180602001604052908160008201805480602002602001604051908101604052809291908181526020016000905b82821015611de0578382906000526020600020018054600181600116156101000203166002900480601f016020809104026020016040519081016040528092919081815260200182805460018160011615610100020316600290048015611dcc5780601f10611da157610100808354040283529160200191611dcc565b820191906000526020600020905b815481529060010190602001808311611daf57829003601f168201915b505050505081526020019060010190611d24565b505050508152505081526020016014820160009054906101000a900460ff166003811115611e0a57fe5b6003811115611e1557fe5b8152602001601582015481526020016016820154815260200160178201548152602001601882015481525050915050919050565b823373ffffffffffffffffffffffffffffffffffffffff16600082604051611e719190613e12565b908152602001604051809103902060000160010160009054906101000a900473ffffffffffffffffffffffffffffffffffffffff1673ffffffffffffffffffffffffffffffffffffffff1614611efc576040517f08c379a0000000000000000000000000000000000000000000000000000000008152600401611ef3906140c1565b60405180910390fd5b6002600085604051611f0e9190613e12565b908152602001604051809103902060140160006101000a81548160ff02191690836003811115611f3a57fe5b021790555042600085604051611f509190613e12565b90815260200160405180910390206017018190555082600085604051611f769190613e12565b90815260200160405180910390206007016002016009019080519060200190611fa09291906129f4565b5081600085604051611fb29190613e12565b9081526020016040518091039020601501819055507f9bb5842d229eac67f028830d67e443a330e336630ba1212693461b1b691e20b884604051611ff6919061402c565b60405180910390a150505050565b813373ffffffffffffffffffffffffffffffffffffffff1660008260405161202c9190613e12565b908152602001604051809103902060000160020160009054906101000a900473ffffffffffffffffffffffffffffffffffffffff1673ffffffffffffffffffffffffffffffffffffffff16146120b7576040517f08c379a00000000000000000000000000000000000000000000000000000000081526004016120ae906140c1565b60405180910390fd5b6000836040516120c79190613e12565b9081526020016040518091039020601301600001829080600181540180825580915050600190039060005260206000200160009091909190915090805190602001906121149291906129f4565b507f9bb5842d229eac67f028830d67e443a330e336630ba1212693461b1b691e20b8836040516121449190613f58565b60405180910390a1505050565b803373ffffffffffffffffffffffffffffffffffffffff166000826040516121799190613e12565b908152602001604051809103902060000160010160009054906101000a900473ffffffffffffffffffffffffffffffffffffffff1673ffffffffffffffffffffffffffffffffffffffff1614612204576040517f08c379a00000000000000000000000000000000000000000000000000000000081526004016121fb906140c1565b60405180910390fd5b60016000836040516122169190613e12565b908152602001604051809103902060140160006101000a81548160ff0219169083600381111561224257fe5b0217905550600080836040516122589190613e12565b9081526020016040518091039020601501819055507f9bb5842d229eac67f028830d67e443a330e336630ba1212693461b1b691e20b88260405161229c9190613eb9565b60405180910390a15050565b813373ffffffffffffffffffffffffffffffffffffffff166000826040516122d09190613e12565b908152602001604051809103902060000160010160009054906101000a900473ffffffffffffffffffffffffffffffffffffffff1673ffffffffffffffffffffffffffffffffffffffff161461235b576040517f08c379a0000000000000000000000000000000000000000000000000000000008152600401612352906140c1565b60405180910390fd5b8160008460405161236c9190613e12565b9081526020016040518091039020600701600201600082015181600001908051906020019061239c929190612a82565b5060208201518160010190805190602001906123b99291906129f4565b5060408201518160020190805190602001906123d69291906129f4565b5060608201518160030190805190602001906123f39291906129f4565b5060808201518160040190805190602001906124109291906129f4565b5060a082015181600501908051906020019061242d929190612a82565b5060c082015181600601908051906020019061244a9291906129f4565b5060e08201518160070190805190602001906124679291906129f4565b506101008201518160080190805190602001906124859291906129f4565b506101208201518160090190805190602001906124a39291906129f4565b509050507f9bb5842d229eac67f028830d67e443a330e336630ba1212693461b1b691e20b8836040516124d69190613f23565b60405180910390a1505050565b813373ffffffffffffffffffffffffffffffffffffffff1660008260405161250b9190613e12565b908152602001604051809103902060000160010160009054906101000a900473ffffffffffffffffffffffffffffffffffffffff1673ffffffffffffffffffffffffffffffffffffffff1614612596576040517f08c379a000000000000000000000000000000000000000000000000000000000815260040161258d906140c1565b60405180910390fd5b816000846040516125a79190613e12565b9081526020016040518091039020601501819055507f9bb5842d229eac67f028830d67e443a330e336630ba1212693461b1b691e20b8836040516125eb9190613fc2565b60405180910390a1505050565b6060600160003373ffffffffffffffffffffffffffffffffffffffff1673ffffffffffffffffffffffffffffffffffffffff168152602001908152602001600020805480602002602001604051908101604052809291908181526020016000905b82821015612715578382906000526020600020018054600181600116156101000203166002900480601f0160208091040260200160405190810160405280929190818152602001828054600181600116156101000203166002900480156127015780601f106126d657610100808354040283529160200191612701565b820191906000526020600020905b8154815290600101906020018083116126e457829003601f168201915b505050505081526020019060010190612659565b50505050905090565b6060813373ffffffffffffffffffffffffffffffffffffffff166000826040516127489190613e12565b908152602001604051809103902060000160010160009054906101000a900473ffffffffffffffffffffffffffffffffffffffff1673ffffffffffffffffffffffffffffffffffffffff16146127d3576040517f08c379a00000000000000000000000000000000000000000000000000000000081526004016127ca906140c1565b60405180910390fd5b6000836040516127e39190613e12565b9081526020016040518091039020601301600001805480602002602001604051908101604052809291908181526020016000905b828210156128d3578382906000526020600020018054600181600116156101000203166002900480601f0160208091040260200160405190810160405280929190818152602001828054600181600116156101000203166002900480156128bf5780601f10612894576101008083540402835291602001916128bf565b820191906000526020600020905b8154815290600101906020018083116128a257829003601f168201915b505050505081526020019060010190612817565b50505050915050919050565b813373ffffffffffffffffffffffffffffffffffffffff166000826040516129079190613e12565b908152602001604051809103902060000160020160009054906101000a900473ffffffffffffffffffffffffffffffffffffffff1673ffffffffffffffffffffffffffffffffffffffff1614612992576040517f08c379a0000000000000000000000000000000000000000000000000000000008152600401612989906140c1565b60405180910390fd5b816000846040516129a39190613e12565b9081526020016040518091039020601601819055507f9bb5842d229eac67f028830d67e443a330e336630ba1212693461b1b691e20b8836040516129e79190613ff7565b60405180910390a1505050565b828054600181600116156101000203166002900490600052602060002090601f016020900481019282612a2a5760008555612a71565b82601f10612a4357805160ff1916838001178555612a71565b82800160010185558215612a71579182015b82811115612a70578251825591602001919060010190612a55565b5b509050612a7e9190612b44565b5090565b828054828255906000526020600020908101928215612ad1579160200282015b82811115612ad0578251829080519060200190612ac09291906129f4565b5091602001919060010190612aa2565b5b509050612ade9190612b61565b5090565b604051806101000160405280612af6612b85565b8152602001612b03612bee565b8152602001612b10612c14565b815260200160006003811115612b2257fe5b8152602001600081526020016000815260200160008152602001600081525090565b5b80821115612b5d576000816000905550600101612b45565b5090565b5b80821115612b815760008181612b789190612c27565b50600101612b62565b5090565b6040518060e0016040528060608152602001600073ffffffffffffffffffffffffffffffffffffffff168152602001600073ffffffffffffffffffffffffffffffffffffffff168152602001606081526020016060815260200160608152602001606081525090565b6040518060400160405280612c01612c6f565b8152602001612c0e612c89565b81525090565b6040518060200160405280606081525090565b50805460018160011615610100020316600290046000825580601f10612c4d5750612c6c565b601f016020900490600052602060002090810190612c6b9190612b44565b5b50565b604051806040016040528060608152602001606081525090565b604051806101400160405280606081526020016060815260200160608152602001606081526020016060815260200160608152602001606081526020016060815260200160608152602001606081525090565b6000612cef612cea84614134565b614103565b9050808382526020820190508260005b85811015612d2f5781358501612d158882612dcb565b845260208401935060208301925050600181019050612cff565b5050509392505050565b6000612d4c612d4784614160565b614103565b905082815260208101848484011115612d6457600080fd5b612d6f848285614273565b509392505050565b600081359050612d86816142dc565b92915050565b600082601f830112612d9d57600080fd5b8135612dad848260208601612cdc565b91505092915050565b600081359050612dc5816142f3565b92915050565b600082601f830112612ddc57600080fd5b8135612dec848260208601612d39565b91505092915050565b600060208284031215612e0757600080fd5b612e116020614103565b9050600082013567ffffffffffffffff811115612e2d57600080fd5b612e3984828501612d8c565b60008301525092915050565b600060408284031215612e5757600080fd5b612e616040614103565b9050600082013567ffffffffffffffff811115612e7d57600080fd5b612e8984828501612dcb565b600083015250602082013567ffffffffffffffff811115612ea957600080fd5b612eb584828501612dcb565b60208301525092915050565b600060e08284031215612ed357600080fd5b612edd60e0614103565b9050600082013567ffffffffffffffff811115612ef957600080fd5b612f0584828501612dcb565b6000830152506020612f1984828501612d77565b6020830152506040612f2d84828501612d77565b604083015250606082013567ffffffffffffffff811115612f4d57600080fd5b612f5984828501612dcb565b606083015250608082013567ffffffffffffffff811115612f7957600080fd5b612f8584828501612dcb565b60808301525060a082013567ffffffffffffffff811115612fa557600080fd5b612fb184828501612dcb565b60a08301525060c082013567ffffffffffffffff811115612fd157600080fd5b612fdd84828501612dcb565b60c08301525092915050565b60006101408284031215612ffc57600080fd5b613007610140614103565b9050600082013567ffffffffffffffff81111561302357600080fd5b61302f84828501612d8c565b600083015250602082013567ffffffffffffffff81111561304f57600080fd5b61305b84828501612dcb565b602083015250604082013567ffffffffffffffff81111561307b57600080fd5b61308784828501612dcb565b604083015250606082013567ffffffffffffffff8111156130a757600080fd5b6130b384828501612dcb565b606083015250608082013567ffffffffffffffff8111156130d357600080fd5b6130df84828501612dcb565b60808301525060a082013567ffffffffffffffff8111156130ff57600080fd5b61310b84828501612d8c565b60a08301525060c082013567ffffffffffffffff81111561312b57600080fd5b61313784828501612dcb565b60c08301525060e082013567ffffffffffffffff81111561315757600080fd5b61316384828501612dcb565b60e08301525061010082013567ffffffffffffffff81111561318457600080fd5b61319084828501612dcb565b6101008301525061012082013567ffffffffffffffff8111156131b257600080fd5b6131be84828501612dcb565b6101208301525092915050565b6000604082840312156131dd57600080fd5b6131e76040614103565b9050600082013567ffffffffffffffff81111561320357600080fd5b61320f84828501612e45565b600083015250602082013567ffffffffffffffff81111561322f57600080fd5b61323b84828501612fe9565b60208301525092915050565b6000610100828403121561325a57600080fd5b613265610100614103565b9050600082013567ffffffffffffffff81111561328157600080fd5b61328d84828501612ec1565b600083015250602082013567ffffffffffffffff8111156132ad57600080fd5b6132b9848285016131cb565b602083015250604082013567ffffffffffffffff8111156132d957600080fd5b6132e584828501612df5565b60408301525060606132f984828501612db6565b606083015250608061330d84828501613355565b60808301525060a061332184828501613355565b60a08301525060c061333584828501613355565b60c08301525060e061334984828501613355565b60e08301525092915050565b60008135905061336481614303565b92915050565b60006020828403121561337c57600080fd5b600082013567ffffffffffffffff81111561339657600080fd5b6133a284828501612dcb565b91505092915050565b600080604083850312156133be57600080fd5b600083013567ffffffffffffffff8111156133d857600080fd5b6133e485828601612dcb565b925050602083013567ffffffffffffffff81111561340157600080fd5b61340d85828601612dcb565b9150509250929050565b60008060006060848603121561342c57600080fd5b600084013567ffffffffffffffff81111561344657600080fd5b61345286828701612dcb565b935050602084013567ffffffffffffffff81111561346f57600080fd5b61347b86828701612dcb565b925050604061348c86828701613355565b9150509250925092565b600080604083850312156134a957600080fd5b600083013567ffffffffffffffff8111156134c357600080fd5b6134cf85828601612dcb565b925050602083013567ffffffffffffffff8111156134ec57600080fd5b6134f885828601612e45565b9150509250929050565b6000806040838503121561351557600080fd5b600083013567ffffffffffffffff81111561352f57600080fd5b61353b85828601612dcb565b925050602083013567ffffffffffffffff81111561355857600080fd5b61356485828601612fe9565b9150509250929050565b6000806040838503121561358157600080fd5b600083013567ffffffffffffffff81111561359b57600080fd5b6135a785828601612dcb565b92505060206135b885828601613355565b9150509250929050565b6000602082840312156135d457600080fd5b600082013567ffffffffffffffff8111156135ee57600080fd5b6135fa84828501613247565b91505092915050565b600061360f838361371f565b905092915050565b61362081614212565b82525050565b6000613631826141a0565b61363b81856141c3565b93508360208202850161364d85614190565b8060005b85811015613689578484038952815161366a8582613603565b9450613675836141b6565b925060208a01995050600181019050613651565b50829750879550505050505092915050565b60006136a6826141a0565b6136b081856141d4565b9350836020820285016136c285614190565b8060005b858110156136fe57848403895281516136df8582613603565b94506136ea836141b6565b925060208a019950506001810190506136c6565b50829750879550505050505092915050565b61371981614261565b82525050565b600061372a826141ab565b61373481856141e5565b9350613744818560208601614282565b61374d816142b7565b840191505092915050565b6000613763826141ab565b61376d81856141f6565b935061377d818560208601614282565b613786816142b7565b840191505092915050565b600061379c826141ab565b6137a68185614207565b93506137b6818560208601614282565b80840191505092915050565b60006137cf6016836141f6565b91507f5365727669636520646f6573206e6f74206578697374000000000000000000006000830152602082019050919050565b600061380f600d836141f6565b91507f534552564943455f5041555345000000000000000000000000000000000000006000830152602082019050919050565b600061384f600c836141f6565b91507f534552564943455f53544f5000000000000000000000000000000000000000006000830152602082019050919050565b600061388f6013836141f6565b91507f534552564943455f4b554245434f4e54455854000000000000000000000000006000830152602082019050919050565b60006138cf6012836141f6565b91507f416c7265616479207265676973746572656400000000000000000000000000006000830152602082019050919050565b600061390f6014836141f6565b91507f534552564943455f53544154455f4241434b55500000000000000000000000006000830152602082019050919050565b600061394f6011836141f6565b91507f534552564943455f434f4e5441494e45520000000000000000000000000000006000830152602082019050919050565b600061398f6010836141f6565b91507f534552564943455f5245504c49434153000000000000000000000000000000006000830152602082019050919050565b60006139cf6010836141f6565b91507f49742773206e6f742072756e6e696e67000000000000000000000000000000006000830152602082019050919050565b6000613a0f6010836141f6565b91507f534552564943455f4c4f434154494f4e000000000000000000000000000000006000830152602082019050919050565b6000613a4f600d836141f6565b91507f534552564943455f5354415254000000000000000000000000000000000000006000830152602082019050919050565b6000613a8f600e836141f6565b91507f4e6f7420617574686f72697a65640000000000000000000000000000000000006000830152602082019050919050565b60006020830160008301518482036000860152613adf8282613626565b9150508091505092915050565b60006040830160008301518482036000860152613b09828261371f565b91505060208301518482036020860152613b23828261371f565b9150508091505092915050565b600060e0830160008301518482036000860152613b4d828261371f565b9150506020830151613b626020860182613617565b506040830151613b756040860182613617565b5060608301518482036060860152613b8d828261371f565b91505060808301518482036080860152613ba7828261371f565b91505060a083015184820360a0860152613bc1828261371f565b91505060c083015184820360c0860152613bdb828261371f565b9150508091505092915050565b6000610140830160008301518482036000860152613c068282613626565b91505060208301518482036020860152613c20828261371f565b91505060408301518482036040860152613c3a828261371f565b91505060608301518482036060860152613c54828261371f565b91505060808301518482036080860152613c6e828261371f565b91505060a083015184820360a0860152613c888282613626565b91505060c083015184820360c0860152613ca2828261371f565b91505060e083015184820360e0860152613cbc828261371f565b915050610100830151848203610100860152613cd8828261371f565b915050610120830151848203610120860152613cf4828261371f565b9150508091505092915050565b60006040830160008301518482036000860152613d1e8282613aec565b91505060208301518482036020860152613d388282613be8565b9150508091505092915050565b6000610100830160008301518482036000860152613d638282613b30565b91505060208301518482036020860152613d7d8282613d01565b91505060408301518482036040860152613d978282613ac2565b9150506060830151613dac6060860182613710565b506080830151613dbf6080860182613e03565b5060a0830151613dd260a0860182613e03565b5060c0830151613de560c0860182613e03565b5060e0830151613df860e0860182613e03565b508091505092915050565b613e0c81614257565b82525050565b6000613e1e8284613791565b915081905092915050565b60006020820190508181036000830152613e43818461369b565b905092915050565b60006020820190508181036000830152613e658184613758565b905092915050565b60006060820190508181036000830152613e878186613758565b90508181036020830152613e9b8185613758565b90508181036040830152613eaf8184613758565b9050949350505050565b60006040820190508181036000830152613ed38184613758565b90508181036020830152613ee681613802565b905092915050565b60006040820190508181036000830152613f088184613758565b90508181036020830152613f1b81613842565b905092915050565b60006040820190508181036000830152613f3d8184613758565b90508181036020830152613f5081613882565b905092915050565b60006040820190508181036000830152613f728184613758565b90508181036020830152613f8581613902565b905092915050565b60006040820190508181036000830152613fa78184613758565b90508181036020830152613fba81613942565b905092915050565b60006040820190508181036000830152613fdc8184613758565b90508181036020830152613fef81613982565b905092915050565b600060408201905081810360008301526140118184613758565b9050818103602083015261402481613a02565b905092915050565b600060408201905081810360008301526140468184613758565b9050818103602083015261405981613a42565b905092915050565b6000602082019050818103600083015261407a816137c2565b9050919050565b6000602082019050818103600083015261409a816138c2565b9050919050565b600060208201905081810360008301526140ba816139c2565b9050919050565b600060208201905081810360008301526140da81613a82565b9050919050565b600060208201905081810360008301526140fb8184613d45565b905092915050565b6000604051905081810181811067ffffffffffffffff8211171561412a576141296142b5565b5b8060405250919050565b600067ffffffffffffffff82111561414f5761414e6142b5565b5b602082029050602081019050919050565b600067ffffffffffffffff82111561417b5761417a6142b5565b5b601f19601f8301169050602081019050919050565b6000819050602082019050919050565b600081519050919050565b600081519050919050565b6000602082019050919050565b600082825260208201905092915050565b600082825260208201905092915050565b600082825260208201905092915050565b600082825260208201905092915050565b600081905092915050565b600061421d82614237565b9050919050565b6000819050614232826142c8565b919050565b600073ffffffffffffffffffffffffffffffffffffffff82169050919050565b6000819050919050565b600061426c82614224565b9050919050565b82818337600083830152505050565b60005b838110156142a0578082015181840152602081019050614285565b838111156142af576000848401525b50505050565bfe5b6000601f19601f8301169050919050565b600481106142d9576142d86142b5565b5b50565b6142e581614212565b81146142f057600080fd5b50565b6004811061430057600080fd5b50565b61430c81614257565b811461431757600080fd5b5056fea2646970667358221220029d4e597128dabf3d0f6c766c22a6b405892e91d0f7218b24ae08d4f085cb4264736f6c63430007060033",
  "immutableReferences": {},
  "source": "pragma solidity >=0.4.22 <0.9.0;\npragma abicoder v2;\n\ncontract ServiceRegistry {\n\n    enum State { Null, Ready, Running, Stop }\n\n    struct Header{\n        string id;\n        address manager;\n        address serviceAccount;\n        string companyName;\n        string companyEmail;\n        string companyContact;\n        string description;\n    }\n\n    \n    struct KubeContext{\n        string[] location;\n        string accessToken;\n        string nodeID;\n        string networkID;\n        string serviceProtocol;\n        string[] servicePoints;\n        string servicePort;\n        string nodeMountService;\n        string nodeMountETCD;\n        string secret;  //v2\n    }\n\n    struct Container{\n        string image;\n        string imageAccessUser;\n    }\n    \n    struct Runtime{\n        Container ct;\n        KubeContext kct;\n    }\n\n    //v3\n    struct Backup{\n        string[] logs;\n    }\n    \n    struct Service{\n        Header header;\n        Runtime runtime;\n        Backup backup; //v3\n        State state;\n        uint256 curReplicas;\n        uint256 serviceLocationIndex;\n        uint256 serviceStartTime;\n        uint256 serviceEndTime;\n    }\n    \n    event ChangeService(string serviceID, string changeType);\n    event NewService(string serviceID);\n    \n    mapping (string => Service) services;\n    mapping (address => string[]) managerServiceList; // string[]: array of service name \n    \n    \n    modifier onlyManager(string memory id){\n        require(services[id].header.manager == msg.sender, \"Not authorized\");\n        _;\n    }\n\n    \n    modifier onlyServiceAccount(string memory id){\n        require(services[id].header.serviceAccount == msg.sender, \"Not authorized\");\n        _;\n    }\n    \n    modifier hasNotService(Service memory service){\n        string memory id = service.header.id;\n        require(services[id].state == State.Null, \"Already registered\");\n        _;\n    }\n    \n    modifier hasService(string memory serviceID){\n        require(services[serviceID].state != State.Null, \"Service does not exist\");\n        _;\n    }\n\n    modifier isRunning(string memory serviceID){\n        require(services[serviceID].state == State.Running, \"It's not running\");\n        _;\n    }\n    \n\n    /* Manager service list*/\n    function getServiceList()\n    public view returns(string[] memory)\n    {\n        return managerServiceList[msg.sender];\n    }\n\n\n    /* Service Manager */\n    function register(Service memory service) \n    public hasNotService(service)\n    {\n        string memory id = service.header.id;\n        services[id] = service;\n        managerServiceList[service.header.manager].push(id);\n        emit NewService(id);\n    }\n\n    /* Service Manager-v2 */\n    function startService(string memory id, string memory secret ,uint256 replicas)\n    public onlyManager(id)\n    {\n        services[id].state = State.Running;\n        services[id].serviceStartTime = block.timestamp;\n        services[id].runtime.kct.secret = secret;\n        services[id].curReplicas = replicas;\n        emit ChangeService(id, \"SERVICE_START\");\n    }\n\n    /* Service Manager-v2 */\n    function updateReplicas(string memory id, uint256 replicas)\n    public onlyManager(id)\n    {\n        services[id].curReplicas = replicas;\n        emit ChangeService(id, \"SERVICE_REPLICAS\");\n    }\n\n    \n    /* Service Manager */\n    function getService(string memory id) \n    public view onlyManager(id)\n    returns (Service memory service)\n    {\n        return services[id];\n    }    \n    \n    /* Service Manager */\n    function updateKubeContext(string memory id, KubeContext memory kubeContext) \n    public onlyManager(id)\n    {\n        services[id].runtime.kct = kubeContext;\n        emit ChangeService(id, \"SERVICE_KUBECONTEXT\");\n    }\n    \n    /* Service Manager */\n    function updateContainer(string memory id, Container memory container) \n    public onlyManager(id)\n    {\n        services[id].runtime.ct = container;\n        emit ChangeService(id, \"SERVICE_CONTAINER\");\n    }\n\n    /* Service Manager-v2 */\n    function pauseService(string memory id)\n    public onlyManager(id)\n    {  \n        services[id].state = State.Ready;\n        services[id].curReplicas = 0;\n        emit ChangeService(id, \"SERVICE_PAUSE\"); \n    }\n    \n    /* Service Manager */\n    function stopService(string memory id) \n    public onlyManager(id)\n    {\n        services[id].state = State.Stop;\n        services[id].serviceEndTime = block.timestamp;\n        emit ChangeService(id, \"SERVICE_STOP\");\n    }\n\n    /* Leader Service-v3 */\n    function backupLog(string memory id, string memory log)\n    public onlyServiceAccount(id)\n    {\n        services[id].backup.logs.push(log);\n        emit ChangeService(id, \"SERVICE_STATE_BACKUP\");\n    }\n\n    /* Leader, Follower Service-v3 */\n    function getLatestBackupLog(string memory id)\n    public view onlyServiceAccount(id)\n    returns (string memory log)\n    {\n        uint index = services[id].backup.logs.length;\n        if(index == 0) return \"empty\";\n        else return services[id].backup.logs[index-1];\n    }\n    \n    /* v3 */\n    function getAllBackupKey(string memory id)\n    public view onlyManager(id)\n    returns (string[] memory logs)\n    {\n        return services[id].backup.logs;\n    }    \n    \n    \n    /* Leader Service-v2 */\n    function updateServiceLocation(string memory id, uint256 curIndex) \n    public onlyServiceAccount(id)\n    {\n        services[id].serviceLocationIndex = curIndex;\n        emit ChangeService(id, \"SERVICE_LOCATION\");\n    }\n\n    /* Service Client */\n    function getServiceLocation(string memory id) \n    public view hasService(id) isRunning(id)\n    returns (string memory protocol, string memory point, string memory port)\n    {\n        uint256 index = services[id].serviceLocationIndex;\n\t    point = services[id].runtime.kct.servicePoints[index];\n\t    port = services[id].runtime.kct.servicePort;\n        protocol = services[id].runtime.kct.serviceProtocol;\n    }\n\n}\n\n\n",
  "sourcePath": "/home/pslabmh/current-project/about-br2k/service-registry/truffle/contracts/ServiceRegistry.sol",
  "compiler": {
    "name": "solc",
    "version": "0.7.6+commit.7338295f.Emscripten.clang"
  },
  "schemaVersion": "3.4.1",
  "updatedAt": "2021-10-30T04:15:10.432Z",
  "networkType": "ethereum",
  "devdoc": {
    "kind": "dev",
    "methods": {},
    "version": 1
  },
  "userdoc": {
    "kind": "user",
    "methods": {},
    "version": 1
  }
}