{
  "contractName": "ServiceRegistry",
  "abi": [
    {
      "anonymous": false,
      "inputs": [
        {
          "indexed": false,
          "internalType": "string",
          "name": "serviceID",
          "type": "string"
        },
        {
          "indexed": false,
          "internalType": "string",
          "name": "changeType",
          "type": "string"
        }
      ],
      "name": "ChangeService",
      "type": "event"
    },
    {
      "anonymous": false,
      "inputs": [
        {
          "indexed": false,
          "internalType": "string",
          "name": "serviceID",
          "type": "string"
        }
      ],
      "name": "NewService",
      "type": "event"
    },
    {
      "constant": true,
      "inputs": [],
      "name": "getServiceList",
      "outputs": [
        {
          "internalType": "string[]",
          "name": "",
          "type": "string[]"
        }
      ],
      "payable": false,
      "stateMutability": "view",
      "type": "function"
    },
    {
      "constant": false,
      "inputs": [
        {
          "components": [
            {
              "components": [
                {
                  "internalType": "string",
                  "name": "id",
                  "type": "string"
                },
                {
                  "internalType": "address",
                  "name": "manager",
                  "type": "address"
                },
                {
                  "internalType": "address",
                  "name": "serviceAccount",
                  "type": "address"
                },
                {
                  "internalType": "string",
                  "name": "companyName",
                  "type": "string"
                },
                {
                  "internalType": "string",
                  "name": "companyEmail",
                  "type": "string"
                },
                {
                  "internalType": "string",
                  "name": "companyContact",
                  "type": "string"
                },
                {
                  "internalType": "string",
                  "name": "description",
                  "type": "string"
                }
              ],
              "internalType": "struct ServiceRegistry.Header",
              "name": "header",
              "type": "tuple"
            },
            {
              "components": [
                {
                  "components": [
                    {
                      "internalType": "string",
                      "name": "image",
                      "type": "string"
                    },
                    {
                      "internalType": "string",
                      "name": "imageAccessUser",
                      "type": "string"
                    }
                  ],
                  "internalType": "struct ServiceRegistry.Container",
                  "name": "ct",
                  "type": "tuple"
                },
                {
                  "components": [
                    {
                      "internalType": "string[]",
                      "name": "location",
                      "type": "string[]"
                    },
                    {
                      "internalType": "string",
                      "name": "accessToken",
                      "type": "string"
                    },
                    {
                      "internalType": "string",
                      "name": "nodeID",
                      "type": "string"
                    },
                    {
                      "internalType": "string",
                      "name": "networkID",
                      "type": "string"
                    },
                    {
                      "internalType": "string",
                      "name": "serviceProtocol",
                      "type": "string"
                    },
                    {
                      "internalType": "string[]",
                      "name": "servicePoints",
                      "type": "string[]"
                    },
                    {
                      "internalType": "string",
                      "name": "servicePort",
                      "type": "string"
                    },
                    {
                      "internalType": "string",
                      "name": "nodeMountService",
                      "type": "string"
                    },
                    {
                      "internalType": "string",
                      "name": "nodeMountETCD",
                      "type": "string"
                    },
                    {
                      "internalType": "string",
                      "name": "secret",
                      "type": "string"
                    }
                  ],
                  "internalType": "struct ServiceRegistry.KubeContext",
                  "name": "kct",
                  "type": "tuple"
                }
              ],
              "internalType": "struct ServiceRegistry.Runtime",
              "name": "runtime",
              "type": "tuple"
            },
            {
              "components": [
                {
                  "internalType": "string[]",
                  "name": "logs",
                  "type": "string[]"
                }
              ],
              "internalType": "struct ServiceRegistry.Backup",
              "name": "backup",
              "type": "tuple"
            },
            {
              "internalType": "enum ServiceRegistry.State",
              "name": "state",
              "type": "uint8"
            },
            {
              "internalType": "uint256",
              "name": "curReplicas",
              "type": "uint256"
            },
            {
              "internalType": "uint256",
              "name": "serviceLocationIndex",
              "type": "uint256"
            },
            {
              "internalType": "uint256",
              "name": "serviceStartTime",
              "type": "uint256"
            },
            {
              "internalType": "uint256",
              "name": "serviceEndTime",
              "type": "uint256"
            }
          ],
          "internalType": "struct ServiceRegistry.Service",
          "name": "service",
          "type": "tuple"
        }
      ],
      "name": "register",
      "outputs": [],
      "payable": false,
      "stateMutability": "nonpayable",
      "type": "function"
    },
    {
      "constant": false,
      "inputs": [
        {
          "internalType": "string",
          "name": "id",
          "type": "string"
        },
        {
          "internalType": "string",
          "name": "secret",
          "type": "string"
        },
        {
          "internalType": "uint256",
          "name": "replicas",
          "type": "uint256"
        }
      ],
      "name": "startService",
      "outputs": [],
      "payable": false,
      "stateMutability": "nonpayable",
      "type": "function"
    },
    {
      "constant": false,
      "inputs": [
        {
          "internalType": "string",
          "name": "id",
          "type": "string"
        },
        {
          "internalType": "uint256",
          "name": "replicas",
          "type": "uint256"
        }
      ],
      "name": "updateReplicas",
      "outputs": [],
      "payable": false,
      "stateMutability": "nonpayable",
      "type": "function"
    },
    {
      "constant": true,
      "inputs": [
        {
          "internalType": "string",
          "name": "id",
          "type": "string"
        }
      ],
      "name": "getService",
      "outputs": [
        {
          "components": [
            {
              "components": [
                {
                  "internalType": "string",
                  "name": "id",
                  "type": "string"
                },
                {
                  "internalType": "address",
                  "name": "manager",
                  "type": "address"
                },
                {
                  "internalType": "address",
                  "name": "serviceAccount",
                  "type": "address"
                },
                {
                  "internalType": "string",
                  "name": "companyName",
                  "type": "string"
                },
                {
                  "internalType": "string",
                  "name": "companyEmail",
                  "type": "string"
                },
                {
                  "internalType": "string",
                  "name": "companyContact",
                  "type": "string"
                },
                {
                  "internalType": "string",
                  "name": "description",
                  "type": "string"
                }
              ],
              "internalType": "struct ServiceRegistry.Header",
              "name": "header",
              "type": "tuple"
            },
            {
              "components": [
                {
                  "components": [
                    {
                      "internalType": "string",
                      "name": "image",
                      "type": "string"
                    },
                    {
                      "internalType": "string",
                      "name": "imageAccessUser",
                      "type": "string"
                    }
                  ],
                  "internalType": "struct ServiceRegistry.Container",
                  "name": "ct",
                  "type": "tuple"
                },
                {
                  "components": [
                    {
                      "internalType": "string[]",
                      "name": "location",
                      "type": "string[]"
                    },
                    {
                      "internalType": "string",
                      "name": "accessToken",
                      "type": "string"
                    },
                    {
                      "internalType": "string",
                      "name": "nodeID",
                      "type": "string"
                    },
                    {
                      "internalType": "string",
                      "name": "networkID",
                      "type": "string"
                    },
                    {
                      "internalType": "string",
                      "name": "serviceProtocol",
                      "type": "string"
                    },
                    {
                      "internalType": "string[]",
                      "name": "servicePoints",
                      "type": "string[]"
                    },
                    {
                      "internalType": "string",
                      "name": "servicePort",
                      "type": "string"
                    },
                    {
                      "internalType": "string",
                      "name": "nodeMountService",
                      "type": "string"
                    },
                    {
                      "internalType": "string",
                      "name": "nodeMountETCD",
                      "type": "string"
                    },
                    {
                      "internalType": "string",
                      "name": "secret",
                      "type": "string"
                    }
                  ],
                  "internalType": "struct ServiceRegistry.KubeContext",
                  "name": "kct",
                  "type": "tuple"
                }
              ],
              "internalType": "struct ServiceRegistry.Runtime",
              "name": "runtime",
              "type": "tuple"
            },
            {
              "components": [
                {
                  "internalType": "string[]",
                  "name": "logs",
                  "type": "string[]"
                }
              ],
              "internalType": "struct ServiceRegistry.Backup",
              "name": "backup",
              "type": "tuple"
            },
            {
              "internalType": "enum ServiceRegistry.State",
              "name": "state",
              "type": "uint8"
            },
            {
              "internalType": "uint256",
              "name": "curReplicas",
              "type": "uint256"
            },
            {
              "internalType": "uint256",
              "name": "serviceLocationIndex",
              "type": "uint256"
            },
            {
              "internalType": "uint256",
              "name": "serviceStartTime",
              "type": "uint256"
            },
            {
              "internalType": "uint256",
              "name": "serviceEndTime",
              "type": "uint256"
            }
          ],
          "internalType": "struct ServiceRegistry.Service",
          "name": "service",
          "type": "tuple"
        }
      ],
      "payable": false,
      "stateMutability": "view",
      "type": "function"
    },
    {
      "constant": false,
      "inputs": [
        {
          "internalType": "string",
          "name": "id",
          "type": "string"
        },
        {
          "components": [
            {
              "internalType": "string[]",
              "name": "location",
              "type": "string[]"
            },
            {
              "internalType": "string",
              "name": "accessToken",
              "type": "string"
            },
            {
              "internalType": "string",
              "name": "nodeID",
              "type": "string"
            },
            {
              "internalType": "string",
              "name": "networkID",
              "type": "string"
            },
            {
              "internalType": "string",
              "name": "serviceProtocol",
              "type": "string"
            },
            {
              "internalType": "string[]",
              "name": "servicePoints",
              "type": "string[]"
            },
            {
              "internalType": "string",
              "name": "servicePort",
              "type": "string"
            },
            {
              "internalType": "string",
              "name": "nodeMountService",
              "type": "string"
            },
            {
              "internalType": "string",
              "name": "nodeMountETCD",
              "type": "string"
            },
            {
              "internalType": "string",
              "name": "secret",
              "type": "string"
            }
          ],
          "internalType": "struct ServiceRegistry.KubeContext",
          "name": "kubeContext",
          "type": "tuple"
        }
      ],
      "name": "updateKubeContext",
      "outputs": [],
      "payable": false,
      "stateMutability": "nonpayable",
      "type": "function"
    },
    {
      "constant": false,
      "inputs": [
        {
          "internalType": "string",
          "name": "id",
          "type": "string"
        },
        {
          "components": [
            {
              "internalType": "string",
              "name": "image",
              "type": "string"
            },
            {
              "internalType": "string",
              "name": "imageAccessUser",
              "type": "string"
            }
          ],
          "internalType": "struct ServiceRegistry.Container",
          "name": "container",
          "type": "tuple"
        }
      ],
      "name": "updateContainer",
      "outputs": [],
      "payable": false,
      "stateMutability": "nonpayable",
      "type": "function"
    },
    {
      "constant": false,
      "inputs": [
        {
          "internalType": "string",
          "name": "id",
          "type": "string"
        }
      ],
      "name": "pauseService",
      "outputs": [],
      "payable": false,
      "stateMutability": "nonpayable",
      "type": "function"
    },
    {
      "constant": false,
      "inputs": [
        {
          "internalType": "string",
          "name": "id",
          "type": "string"
        }
      ],
      "name": "stopService",
      "outputs": [],
      "payable": false,
      "stateMutability": "nonpayable",
      "type": "function"
    },
    {
      "constant": false,
      "inputs": [
        {
          "internalType": "string",
          "name": "id",
          "type": "string"
        },
        {
          "internalType": "string",
          "name": "log",
          "type": "string"
        }
      ],
      "name": "backupLog",
      "outputs": [],
      "payable": false,
      "stateMutability": "nonpayable",
      "type": "function"
    },
    {
      "constant": true,
      "inputs": [
        {
          "internalType": "string",
          "name": "id",
          "type": "string"
        }
      ],
      "name": "getLatestBackupLog",
      "outputs": [
        {
          "internalType": "string",
          "name": "log",
          "type": "string"
        }
      ],
      "payable": false,
      "stateMutability": "view",
      "type": "function"
    },
    {
      "constant": true,
      "inputs": [
        {
          "internalType": "string",
          "name": "id",
          "type": "string"
        }
      ],
      "name": "getAllBackupKey",
      "outputs": [
        {
          "internalType": "string[]",
          "name": "logs",
          "type": "string[]"
        }
      ],
      "payable": false,
      "stateMutability": "view",
      "type": "function"
    },
    {
      "constant": false,
      "inputs": [
        {
          "internalType": "string",
          "name": "id",
          "type": "string"
        },
        {
          "internalType": "uint256",
          "name": "curIndex",
          "type": "uint256"
        }
      ],
      "name": "updateServiceLocation",
      "outputs": [],
      "payable": false,
      "stateMutability": "nonpayable",
      "type": "function"
    },
    {
      "constant": true,
      "inputs": [
        {
          "internalType": "string",
          "name": "id",
          "type": "string"
        }
      ],
      "name": "getServiceLocation",
      "outputs": [
        {
          "internalType": "string",
          "name": "protocol",
          "type": "string"
        },
        {
          "internalType": "string",
          "name": "point",
          "type": "string"
        },
        {
          "internalType": "string",
          "name": "port",
          "type": "string"
        }
      ],
      "payable": false,
      "stateMutability": "view",
      "type": "function"
    }
  ],
  "bytecode": "0x608060405234801561001057600080fd5b506146fd806100206000396000f3fe608060405234801561001057600080fd5b50600436106100ea5760003560e01c8063a066515f1161008c578063bd9e014511610066578063bd9e014514610245578063c647191b14610261578063cd8004931461027f578063e2e35504146102af576100ea565b8063a066515f146101f1578063b45bd5e51461020d578063b8025b5714610229576100ea565b80635d591848116100c85780635d59184814610157578063736e49b214610173578063794758be146101a557806399a0f0af146101d5576100ea565b8063162f7f7c146100ef5780634d87aaf41461010b57806354e016b51461013b575b600080fd5b610109600480360361010491908101906136c0565b6102cb565b005b610125600480360361012091908101906136c0565b610422565b60405161013291906141a1565b60405180910390f35b61015560048036036101509190810190613918565b610628565b005b610171600480360361016c91908101906137ec565b610acf565b005b61018d600480360361018891908101906136c0565b610c20565b60405161019c939291906141c3565b60405180910390f35b6101bf60048036036101ba91908101906136c0565b610fc0565b6040516101cc9190614437565b60405180910390f35b6101ef60048036036101ea919081019061376d565b611e4c565b005b61020b60048036036102069190810190613701565b612007565b005b610227600480360361022291908101906136c0565b612157565b005b610243600480360361023e9190810190613858565b6122ae565b005b61025f600480360361025a91908101906138c4565b6124e9565b005b6102696125fe565b604051610276919061417f565b60405180910390f35b610299600480360361029491908101906136c0565b612724565b6040516102a6919061417f565b60405180910390f35b6102c960048036036102c491908101906138c4565b6128e5565b005b803373ffffffffffffffffffffffffffffffffffffffff166000826040516102f39190614168565b908152602001604051809103902060000160010160009054906101000a900473ffffffffffffffffffffffffffffffffffffffff1673ffffffffffffffffffffffffffffffffffffffff161461037e576040517f08c379a000000000000000000000000000000000000000000000000000000000815260040161037590614417565b60405180910390fd5b60036000836040516103909190614168565b908152602001604051809103902060140160006101000a81548160ff021916908360038111156103bc57fe5b0217905550426000836040516103d29190614168565b9081526020016040518091039020601801819055507f9bb5842d229eac67f028830d67e443a330e336630ba1212693461b1b691e20b8826040516104169190614244565b60405180910390a15050565b6060813373ffffffffffffffffffffffffffffffffffffffff1660008260405161044c9190614168565b908152602001604051809103902060000160020160009054906101000a900473ffffffffffffffffffffffffffffffffffffffff1673ffffffffffffffffffffffffffffffffffffffff16146104d7576040517f08c379a00000000000000000000000000000000000000000000000000000000081526004016104ce90614417565b60405180910390fd5b600080846040516104e89190614168565b90815260200160405180910390206013016000018054905090506000811415610549576040518060400160405280600581526020017f656d707479000000000000000000000000000000000000000000000000000000815250925050610622565b6000846040516105599190614168565b9081526020016040518091039020601301600001600182038154811061057b57fe5b906000526020600020018054600181600116156101000203166002900480601f0160208091040260200160405190810160405280929190818152602001828054600181600116156101000203166002900480156106195780601f106105ee57610100808354040283529160200191610619565b820191906000526020600020905b8154815290600101906020018083116105fc57829003601f168201915b50505050509250505b50919050565b80606081600001516000015190506000600381111561064357fe5b6000826040516106539190614168565b908152602001604051809103902060140160009054906101000a900460ff16600381111561067d57fe5b146106bd576040517f08c379a00000000000000000000000000000000000000000000000000000000081526004016106b4906143d7565b60405180910390fd5b60608360000151600001519050836000826040516106db9190614168565b9081526020016040518091039020600082015181600001600082015181600001908051906020019061070e929190612a3d565b5060208201518160010160006101000a81548173ffffffffffffffffffffffffffffffffffffffff021916908373ffffffffffffffffffffffffffffffffffffffff16021790555060408201518160020160006101000a81548173ffffffffffffffffffffffffffffffffffffffff021916908373ffffffffffffffffffffffffffffffffffffffff16021790555060608201518160030190805190602001906107b9929190612a3d565b5060808201518160040190805190602001906107d6929190612a3d565b5060a08201518160050190805190602001906107f3929190612a3d565b5060c0820151816006019080519060200190610810929190612a3d565b5050506020820151816007016000820151816000016000820151816000019080519060200190610841929190612a3d565b50602082015181600101908051906020019061085e929190612a3d565b5050506020820151816002016000820151816000019080519060200190610886929190612abd565b5060208201518160010190805190602001906108a3929190612a3d565b5060408201518160020190805190602001906108c0929190612a3d565b5060608201518160030190805190602001906108dd929190612a3d565b5060808201518160040190805190602001906108fa929190612a3d565b5060a0820151816005019080519060200190610917929190612abd565b5060c0820151816006019080519060200190610934929190612a3d565b5060e0820151816007019080519060200190610951929190612a3d565b5061010082015181600801908051906020019061096f929190612a3d565b5061012082015181600901908051906020019061098d929190612a3d565b505050505060408201518160130160008201518160000190805190602001906109b7929190612abd565b50505060608201518160140160006101000a81548160ff021916908360038111156109de57fe5b02179055506080820151816015015560a0820151816016015560c0820151816017015560e082015181601801559050506001600085600001516020015173ffffffffffffffffffffffffffffffffffffffff1673ffffffffffffffffffffffffffffffffffffffff168152602001908152602001600020819080600181540180825580915050906001820390600052602060002001600090919290919091509080519060200190610a90929190612b1d565b50507f0c5354bce940f3374f3999939428ffc2ba430816423bba0c70c7e25c913915f181604051610ac191906141a1565b60405180910390a150505050565b813373ffffffffffffffffffffffffffffffffffffffff16600082604051610af79190614168565b908152602001604051809103902060000160010160009054906101000a900473ffffffffffffffffffffffffffffffffffffffff1673ffffffffffffffffffffffffffffffffffffffff1614610b82576040517f08c379a0000000000000000000000000000000000000000000000000000000008152600401610b7990614417565b60405180910390fd5b81600084604051610b939190614168565b90815260200160405180910390206007016000016000820151816000019080519060200190610bc3929190612a3d565b506020820151816001019080519060200190610be0929190612a3d565b509050507f9bb5842d229eac67f028830d67e443a330e336630ba1212693461b1b691e20b883604051610c1391906142e3565b60405180910390a1505050565b60608060608360006003811115610c3357fe5b600082604051610c439190614168565b908152602001604051809103902060140160009054906101000a900460ff166003811115610c6d57fe5b1415610cae576040517f08c379a0000000000000000000000000000000000000000000000000000000008152600401610ca5906143b7565b60405180910390fd5b8460026003811115610cbc57fe5b600082604051610ccc9190614168565b908152602001604051809103902060140160009054906101000a900460ff166003811115610cf657fe5b14610d36576040517f08c379a0000000000000000000000000000000000000000000000000000000008152600401610d2d906143f7565b60405180910390fd5b60008087604051610d479190614168565b9081526020016040518091039020601601549050600087604051610d6b9190614168565b90815260200160405180910390206007016002016005018181548110610d8d57fe5b906000526020600020018054600181600116156101000203166002900480601f016020809104026020016040519081016040528092919081815260200182805460018160011615610100020316600290048015610e2b5780601f10610e0057610100808354040283529160200191610e2b565b820191906000526020600020905b815481529060010190602001808311610e0e57829003601f168201915b50505050509450600087604051610e429190614168565b90815260200160405180910390206007016002016006018054600181600116156101000203166002900480601f016020809104026020016040519081016040528092919081815260200182805460018160011615610100020316600290048015610eed5780601f10610ec257610100808354040283529160200191610eed565b820191906000526020600020905b815481529060010190602001808311610ed057829003601f168201915b50505050509350600087604051610f049190614168565b90815260200160405180910390206007016002016004018054600181600116156101000203166002900480601f016020809104026020016040519081016040528092919081815260200182805460018160011615610100020316600290048015610faf5780601f10610f8457610100808354040283529160200191610faf565b820191906000526020600020905b815481529060010190602001808311610f9257829003601f168201915b505050505095505050509193909250565b610fc8612b9d565b813373ffffffffffffffffffffffffffffffffffffffff16600082604051610ff09190614168565b908152602001604051809103902060000160010160009054906101000a900473ffffffffffffffffffffffffffffffffffffffff1673ffffffffffffffffffffffffffffffffffffffff161461107b576040517f08c379a000000000000000000000000000000000000000000000000000000000815260040161107290614417565b60405180910390fd5b60008360405161108b9190614168565b908152602001604051809103902060405180610100016040529081600082016040518060e0016040529081600082018054600181600116156101000203166002900480601f01602080910402602001604051908101604052809291908181526020018280546001816001161561010002031660029004801561114e5780601f106111235761010080835404028352916020019161114e565b820191906000526020600020905b81548152906001019060200180831161113157829003601f168201915b505050505081526020016001820160009054906101000a900473ffffffffffffffffffffffffffffffffffffffff1673ffffffffffffffffffffffffffffffffffffffff1673ffffffffffffffffffffffffffffffffffffffff1681526020016002820160009054906101000a900473ffffffffffffffffffffffffffffffffffffffff1673ffffffffffffffffffffffffffffffffffffffff1673ffffffffffffffffffffffffffffffffffffffff168152602001600382018054600181600116156101000203166002900480601f01602080910402602001604051908101604052809291908181526020018280546001816001161561010002031660029004801561129c5780601f106112715761010080835404028352916020019161129c565b820191906000526020600020905b81548152906001019060200180831161127f57829003601f168201915b50505050508152602001600482018054600181600116156101000203166002900480601f01602080910402602001604051908101604052809291908181526020018280546001816001161561010002031660029004801561133e5780601f106113135761010080835404028352916020019161133e565b820191906000526020600020905b81548152906001019060200180831161132157829003601f168201915b50505050508152602001600582018054600181600116156101000203166002900480601f0160208091040260200160405190810160405280929190818152602001828054600181600116156101000203166002900480156113e05780601f106113b5576101008083540402835291602001916113e0565b820191906000526020600020905b8154815290600101906020018083116113c357829003601f168201915b50505050508152602001600682018054600181600116156101000203166002900480601f0160208091040260200160405190810160405280929190818152602001828054600181600116156101000203166002900480156114825780601f1061145757610100808354040283529160200191611482565b820191906000526020600020905b81548152906001019060200180831161146557829003601f168201915b50505050508152505081526020016007820160405180604001604052908160008201604051806040016040529081600082018054600181600116156101000203166002900480601f0160208091040260200160405190810160405280929190818152602001828054600181600116156101000203166002900480156115485780601f1061151d57610100808354040283529160200191611548565b820191906000526020600020905b81548152906001019060200180831161152b57829003601f168201915b50505050508152602001600182018054600181600116156101000203166002900480601f0160208091040260200160405190810160405280929190818152602001828054600181600116156101000203166002900480156115ea5780601f106115bf576101008083540402835291602001916115ea565b820191906000526020600020905b8154815290600101906020018083116115cd57829003601f168201915b5050505050815250508152602001600282016040518061014001604052908160008201805480602002602001604051908101604052809291908181526020016000905b828210156116e9578382906000526020600020018054600181600116156101000203166002900480601f0160208091040260200160405190810160405280929190818152602001828054600181600116156101000203166002900480156116d55780601f106116aa576101008083540402835291602001916116d5565b820191906000526020600020905b8154815290600101906020018083116116b857829003601f168201915b50505050508152602001906001019061162d565b505050508152602001600182018054600181600116156101000203166002900480601f01602080910402602001604051908101604052809291908181526020018280546001816001161561010002031660029004801561178a5780601f1061175f5761010080835404028352916020019161178a565b820191906000526020600020905b81548152906001019060200180831161176d57829003601f168201915b50505050508152602001600282018054600181600116156101000203166002900480601f01602080910402602001604051908101604052809291908181526020018280546001816001161561010002031660029004801561182c5780601f106118015761010080835404028352916020019161182c565b820191906000526020600020905b81548152906001019060200180831161180f57829003601f168201915b50505050508152602001600382018054600181600116156101000203166002900480601f0160208091040260200160405190810160405280929190818152602001828054600181600116156101000203166002900480156118ce5780601f106118a3576101008083540402835291602001916118ce565b820191906000526020600020905b8154815290600101906020018083116118b157829003601f168201915b50505050508152602001600482018054600181600116156101000203166002900480601f0160208091040260200160405190810160405280929190818152602001828054600181600116156101000203166002900480156119705780601f1061194557610100808354040283529160200191611970565b820191906000526020600020905b81548152906001019060200180831161195357829003601f168201915b5050505050815260200160058201805480602002602001604051908101604052809291908181526020016000905b82821015611a5a578382906000526020600020018054600181600116156101000203166002900480601f016020809104026020016040519081016040528092919081815260200182805460018160011615610100020316600290048015611a465780601f10611a1b57610100808354040283529160200191611a46565b820191906000526020600020905b815481529060010190602001808311611a2957829003601f168201915b50505050508152602001906001019061199e565b505050508152602001600682018054600181600116156101000203166002900480601f016020809104026020016040519081016040528092919081815260200182805460018160011615610100020316600290048015611afb5780601f10611ad057610100808354040283529160200191611afb565b820191906000526020600020905b815481529060010190602001808311611ade57829003601f168201915b50505050508152602001600782018054600181600116156101000203166002900480601f016020809104026020016040519081016040528092919081815260200182805460018160011615610100020316600290048015611b9d5780601f10611b7257610100808354040283529160200191611b9d565b820191906000526020600020905b815481529060010190602001808311611b8057829003601f168201915b50505050508152602001600882018054600181600116156101000203166002900480601f016020809104026020016040519081016040528092919081815260200182805460018160011615610100020316600290048015611c3f5780601f10611c1457610100808354040283529160200191611c3f565b820191906000526020600020905b815481529060010190602001808311611c2257829003601f168201915b50505050508152602001600982018054600181600116156101000203166002900480601f016020809104026020016040519081016040528092919081815260200182805460018160011615610100020316600290048015611ce15780601f10611cb657610100808354040283529160200191611ce1565b820191906000526020600020905b815481529060010190602001808311611cc457829003601f168201915b5050505050815250508152505081526020016013820160405180602001604052908160008201805480602002602001604051908101604052809291908181526020016000905b82821015611de3578382906000526020600020018054600181600116156101000203166002900480601f016020809104026020016040519081016040528092919081815260200182805460018160011615610100020316600290048015611dcf5780601f10611da457610100808354040283529160200191611dcf565b820191906000526020600020905b815481529060010190602001808311611db257829003601f168201915b505050505081526020019060010190611d27565b505050508152505081526020016014820160009054906101000a900460ff166003811115611e0d57fe5b6003811115611e1857fe5b8152602001601582015481526020016016820154815260200160178201548152602001601882015481525050915050919050565b823373ffffffffffffffffffffffffffffffffffffffff16600082604051611e749190614168565b908152602001604051809103902060000160010160009054906101000a900473ffffffffffffffffffffffffffffffffffffffff1673ffffffffffffffffffffffffffffffffffffffff1614611eff576040517f08c379a0000000000000000000000000000000000000000000000000000000008152600401611ef690614417565b60405180910390fd5b6002600085604051611f119190614168565b908152602001604051809103902060140160006101000a81548160ff02191690836003811115611f3d57fe5b021790555042600085604051611f539190614168565b90815260200160405180910390206017018190555082600085604051611f799190614168565b90815260200160405180910390206007016002016009019080519060200190611fa3929190612b1d565b5081600085604051611fb59190614168565b9081526020016040518091039020601501819055507f9bb5842d229eac67f028830d67e443a330e336630ba1212693461b1b691e20b884604051611ff99190614382565b60405180910390a150505050565b813373ffffffffffffffffffffffffffffffffffffffff1660008260405161202f9190614168565b908152602001604051809103902060000160020160009054906101000a900473ffffffffffffffffffffffffffffffffffffffff1673ffffffffffffffffffffffffffffffffffffffff16146120ba576040517f08c379a00000000000000000000000000000000000000000000000000000000081526004016120b190614417565b60405180910390fd5b6000836040516120ca9190614168565b9081526020016040518091039020601301600001829080600181540180825580915050906001820390600052602060002001600090919290919091509080519060200190612119929190612b1d565b50507f9bb5842d229eac67f028830d67e443a330e336630ba1212693461b1b691e20b88360405161214a91906142ae565b60405180910390a1505050565b803373ffffffffffffffffffffffffffffffffffffffff1660008260405161217f9190614168565b908152602001604051809103902060000160010160009054906101000a900473ffffffffffffffffffffffffffffffffffffffff1673ffffffffffffffffffffffffffffffffffffffff161461220a576040517f08c379a000000000000000000000000000000000000000000000000000000000815260040161220190614417565b60405180910390fd5b600160008360405161221c9190614168565b908152602001604051809103902060140160006101000a81548160ff0219169083600381111561224857fe5b02179055506000808360405161225e9190614168565b9081526020016040518091039020601501819055507f9bb5842d229eac67f028830d67e443a330e336630ba1212693461b1b691e20b8826040516122a2919061420f565b60405180910390a15050565b813373ffffffffffffffffffffffffffffffffffffffff166000826040516122d69190614168565b908152602001604051809103902060000160010160009054906101000a900473ffffffffffffffffffffffffffffffffffffffff1673ffffffffffffffffffffffffffffffffffffffff1614612361576040517f08c379a000000000000000000000000000000000000000000000000000000000815260040161235890614417565b60405180910390fd5b816000846040516123729190614168565b908152602001604051809103902060070160020160008201518160000190805190602001906123a2929190612abd565b5060208201518160010190805190602001906123bf929190612a3d565b5060408201518160020190805190602001906123dc929190612a3d565b5060608201518160030190805190602001906123f9929190612a3d565b506080820151816004019080519060200190612416929190612a3d565b5060a0820151816005019080519060200190612433929190612abd565b5060c0820151816006019080519060200190612450929190612a3d565b5060e082015181600701908051906020019061246d929190612a3d565b5061010082015181600801908051906020019061248b929190612a3d565b506101208201518160090190805190602001906124a9929190612a3d565b509050507f9bb5842d229eac67f028830d67e443a330e336630ba1212693461b1b691e20b8836040516124dc9190614279565b60405180910390a1505050565b813373ffffffffffffffffffffffffffffffffffffffff166000826040516125119190614168565b908152602001604051809103902060000160010160009054906101000a900473ffffffffffffffffffffffffffffffffffffffff1673ffffffffffffffffffffffffffffffffffffffff161461259c576040517f08c379a000000000000000000000000000000000000000000000000000000000815260040161259390614417565b60405180910390fd5b816000846040516125ad9190614168565b9081526020016040518091039020601501819055507f9bb5842d229eac67f028830d67e443a330e336630ba1212693461b1b691e20b8836040516125f19190614318565b60405180910390a1505050565b6060600160003373ffffffffffffffffffffffffffffffffffffffff1673ffffffffffffffffffffffffffffffffffffffff168152602001908152602001600020805480602002602001604051908101604052809291908181526020016000905b8282101561271b578382906000526020600020018054600181600116156101000203166002900480601f0160208091040260200160405190810160405280929190818152602001828054600181600116156101000203166002900480156127075780601f106126dc57610100808354040283529160200191612707565b820191906000526020600020905b8154815290600101906020018083116126ea57829003601f168201915b50505050508152602001906001019061265f565b50505050905090565b6060813373ffffffffffffffffffffffffffffffffffffffff1660008260405161274e9190614168565b908152602001604051809103902060000160010160009054906101000a900473ffffffffffffffffffffffffffffffffffffffff1673ffffffffffffffffffffffffffffffffffffffff16146127d9576040517f08c379a00000000000000000000000000000000000000000000000000000000081526004016127d090614417565b60405180910390fd5b6000836040516127e99190614168565b9081526020016040518091039020601301600001805480602002602001604051908101604052809291908181526020016000905b828210156128d9578382906000526020600020018054600181600116156101000203166002900480601f0160208091040260200160405190810160405280929190818152602001828054600181600116156101000203166002900480156128c55780601f1061289a576101008083540402835291602001916128c5565b820191906000526020600020905b8154815290600101906020018083116128a857829003601f168201915b50505050508152602001906001019061281d565b50505050915050919050565b813373ffffffffffffffffffffffffffffffffffffffff1660008260405161290d9190614168565b908152602001604051809103902060000160020160009054906101000a900473ffffffffffffffffffffffffffffffffffffffff1673ffffffffffffffffffffffffffffffffffffffff1614612998576040517f08c379a000000000000000000000000000000000000000000000000000000000815260040161298f90614417565b60405180910390fd5b816000846040516129a99190614168565b90815260200160405180910390206016018190555060026000846040516129d09190614168565b908152602001604051809103902060140160006101000a81548160ff021916908360038111156129fc57fe5b02179055507f9bb5842d229eac67f028830d67e443a330e336630ba1212693461b1b691e20b883604051612a30919061434d565b60405180910390a1505050565b828054600181600116156101000203166002900490600052602060002090601f016020900481019282601f10612a7e57805160ff1916838001178555612aac565b82800160010185558215612aac579182015b82811115612aab578251825591602001919060010190612a90565b5b509050612ab99190612bff565b5090565b828054828255906000526020600020908101928215612b0c579160200282015b82811115612b0b578251829080519060200190612afb929190612a3d565b5091602001919060010190612add565b5b509050612b199190612c24565b5090565b828054600181600116156101000203166002900490600052602060002090601f016020900481019282601f10612b5e57805160ff1916838001178555612b8c565b82800160010185558215612b8c579182015b82811115612b8b578251825591602001919060010190612b70565b5b509050612b999190612bff565b5090565b604051806101000160405280612bb1612c50565b8152602001612bbe612cb9565b8152602001612bcb612cdf565b815260200160006003811115612bdd57fe5b8152602001600081526020016000815260200160008152602001600081525090565b612c2191905b80821115612c1d576000816000905550600101612c05565b5090565b90565b612c4d91905b80821115612c495760008181612c409190612cf2565b50600101612c2a565b5090565b90565b6040518060e0016040528060608152602001600073ffffffffffffffffffffffffffffffffffffffff168152602001600073ffffffffffffffffffffffffffffffffffffffff168152602001606081526020016060815260200160608152602001606081525090565b6040518060400160405280612ccc612d3a565b8152602001612cd9612d54565b81525090565b6040518060200160405280606081525090565b50805460018160011615610100020316600290046000825580601f10612d185750612d37565b601f016020900490600052602060002090810190612d369190612bff565b5b50565b604051806040016040528060608152602001606081525090565b604051806101400160405280606081526020016060815260200160608152602001606081526020016060815260200160608152602001606081526020016060815260200160608152602001606081525090565b600081359050612db68161467c565b92915050565b600082601f830112612dcd57600080fd5b8135612de0612ddb82614486565b614459565b9150818183526020840193506020810190508360005b83811015612e265781358601612e0c8882612e45565b845260208401935060208301925050600181019050612df6565b5050505092915050565b600081359050612e3f81614693565b92915050565b600082601f830112612e5657600080fd5b8135612e69612e64826144ae565b614459565b91508082526020830160208301858383011115612e8557600080fd5b612e9083828461461c565b50505092915050565b600082601f830112612eaa57600080fd5b8135612ebd612eb8826144da565b614459565b91508082526020830160208301858383011115612ed957600080fd5b612ee483828461461c565b50505092915050565b600060208284031215612eff57600080fd5b612f096020614459565b9050600082013567ffffffffffffffff811115612f2557600080fd5b612f3184828501612dbc565b60008301525092915050565b600060408284031215612f4f57600080fd5b612f596040614459565b9050600082013567ffffffffffffffff811115612f7557600080fd5b612f8184828501612e45565b600083015250602082013567ffffffffffffffff811115612fa157600080fd5b612fad84828501612e45565b60208301525092915050565b600060408284031215612fcb57600080fd5b612fd56040614459565b9050600082013567ffffffffffffffff811115612ff157600080fd5b612ffd84828501612e45565b600083015250602082013567ffffffffffffffff81111561301d57600080fd5b61302984828501612e45565b60208301525092915050565b600060e0828403121561304757600080fd5b61305160e0614459565b9050600082013567ffffffffffffffff81111561306d57600080fd5b61307984828501612e45565b600083015250602061308d84828501612da7565b60208301525060406130a184828501612da7565b604083015250606082013567ffffffffffffffff8111156130c157600080fd5b6130cd84828501612e45565b606083015250608082013567ffffffffffffffff8111156130ed57600080fd5b6130f984828501612e45565b60808301525060a082013567ffffffffffffffff81111561311957600080fd5b61312584828501612e45565b60a08301525060c082013567ffffffffffffffff81111561314557600080fd5b61315184828501612e45565b60c08301525092915050565b6000610140828403121561317057600080fd5b61317b610140614459565b9050600082013567ffffffffffffffff81111561319757600080fd5b6131a384828501612dbc565b600083015250602082013567ffffffffffffffff8111156131c357600080fd5b6131cf84828501612e45565b602083015250604082013567ffffffffffffffff8111156131ef57600080fd5b6131fb84828501612e45565b604083015250606082013567ffffffffffffffff81111561321b57600080fd5b61322784828501612e45565b606083015250608082013567ffffffffffffffff81111561324757600080fd5b61325384828501612e45565b60808301525060a082013567ffffffffffffffff81111561327357600080fd5b61327f84828501612dbc565b60a08301525060c082013567ffffffffffffffff81111561329f57600080fd5b6132ab84828501612e45565b60c08301525060e082013567ffffffffffffffff8111156132cb57600080fd5b6132d784828501612e45565b60e08301525061010082013567ffffffffffffffff8111156132f857600080fd5b61330484828501612e45565b6101008301525061012082013567ffffffffffffffff81111561332657600080fd5b61333284828501612e45565b6101208301525092915050565b6000610140828403121561335257600080fd5b61335d610140614459565b9050600082013567ffffffffffffffff81111561337957600080fd5b61338584828501612dbc565b600083015250602082013567ffffffffffffffff8111156133a557600080fd5b6133b184828501612e45565b602083015250604082013567ffffffffffffffff8111156133d157600080fd5b6133dd84828501612e45565b604083015250606082013567ffffffffffffffff8111156133fd57600080fd5b61340984828501612e45565b606083015250608082013567ffffffffffffffff81111561342957600080fd5b61343584828501612e45565b60808301525060a082013567ffffffffffffffff81111561345557600080fd5b61346184828501612dbc565b60a08301525060c082013567ffffffffffffffff81111561348157600080fd5b61348d84828501612e45565b60c08301525060e082013567ffffffffffffffff8111156134ad57600080fd5b6134b984828501612e45565b60e08301525061010082013567ffffffffffffffff8111156134da57600080fd5b6134e684828501612e45565b6101008301525061012082013567ffffffffffffffff81111561350857600080fd5b61351484828501612e45565b6101208301525092915050565b60006040828403121561353357600080fd5b61353d6040614459565b9050600082013567ffffffffffffffff81111561355957600080fd5b61356584828501612f3d565b600083015250602082013567ffffffffffffffff81111561358557600080fd5b6135918482850161315d565b60208301525092915050565b600061010082840312156135b057600080fd5b6135bb610100614459565b9050600082013567ffffffffffffffff8111156135d757600080fd5b6135e384828501613035565b600083015250602082013567ffffffffffffffff81111561360357600080fd5b61360f84828501613521565b602083015250604082013567ffffffffffffffff81111561362f57600080fd5b61363b84828501612eed565b604083015250606061364f84828501612e30565b6060830152506080613663848285016136ab565b60808301525060a0613677848285016136ab565b60a08301525060c061368b848285016136ab565b60c08301525060e061369f848285016136ab565b60e08301525092915050565b6000813590506136ba816146a3565b92915050565b6000602082840312156136d257600080fd5b600082013567ffffffffffffffff8111156136ec57600080fd5b6136f884828501612e99565b91505092915050565b6000806040838503121561371457600080fd5b600083013567ffffffffffffffff81111561372e57600080fd5b61373a85828601612e99565b925050602083013567ffffffffffffffff81111561375757600080fd5b61376385828601612e99565b9150509250929050565b60008060006060848603121561378257600080fd5b600084013567ffffffffffffffff81111561379c57600080fd5b6137a886828701612e99565b935050602084013567ffffffffffffffff8111156137c557600080fd5b6137d186828701612e99565b92505060406137e2868287016136ab565b9150509250925092565b600080604083850312156137ff57600080fd5b600083013567ffffffffffffffff81111561381957600080fd5b61382585828601612e99565b925050602083013567ffffffffffffffff81111561384257600080fd5b61384e85828601612fb9565b9150509250929050565b6000806040838503121561386b57600080fd5b600083013567ffffffffffffffff81111561388557600080fd5b61389185828601612e99565b925050602083013567ffffffffffffffff8111156138ae57600080fd5b6138ba8582860161333f565b9150509250929050565b600080604083850312156138d757600080fd5b600083013567ffffffffffffffff8111156138f157600080fd5b6138fd85828601612e99565b925050602061390e858286016136ab565b9150509250929050565b60006020828403121561392a57600080fd5b600082013567ffffffffffffffff81111561394457600080fd5b6139508482850161359d565b91505092915050565b60006139658383613adf565b905092915050565b613976816145bb565b82525050565b600061398782614531565b613991818561457d565b9350836020820285016139a385614516565b8060005b858110156139df57848403895281516139c08582613959565b94506139cb8361455f565b925060208a019950506001810190506139a7565b50829750879550505050505092915050565b60006139fc82614526565b613a06818561456c565b935083602082028501613a1885614506565b8060005b85811015613a545784840389528151613a358582613959565b9450613a4083614552565b925060208a01995050600181019050613a1c565b50829750879550505050505092915050565b613a6f8161460a565b82525050565b6000613a8082614547565b613a8a818561459f565b9350613a9a81856020860161462b565b613aa38161465e565b840191505092915050565b6000613ab982614547565b613ac381856145b0565b9350613ad381856020860161462b565b80840191505092915050565b6000613aea8261453c565b613af4818561458e565b9350613b0481856020860161462b565b613b0d8161465e565b840191505092915050565b6000613b2560168361459f565b91507f5365727669636520646f6573206e6f74206578697374000000000000000000006000830152602082019050919050565b6000613b65600d8361459f565b91507f534552564943455f5041555345000000000000000000000000000000000000006000830152602082019050919050565b6000613ba5600c8361459f565b91507f534552564943455f53544f5000000000000000000000000000000000000000006000830152602082019050919050565b6000613be560138361459f565b91507f534552564943455f4b554245434f4e54455854000000000000000000000000006000830152602082019050919050565b6000613c2560128361459f565b91507f416c7265616479207265676973746572656400000000000000000000000000006000830152602082019050919050565b6000613c6560148361459f565b91507f534552564943455f53544154455f4241434b55500000000000000000000000006000830152602082019050919050565b6000613ca560118361459f565b91507f534552564943455f434f4e5441494e45520000000000000000000000000000006000830152602082019050919050565b6000613ce560108361459f565b91507f534552564943455f5245504c49434153000000000000000000000000000000006000830152602082019050919050565b6000613d2560108361459f565b91507f49742773206e6f742072756e6e696e67000000000000000000000000000000006000830152602082019050919050565b6000613d6560108361459f565b91507f534552564943455f4c4f434154494f4e000000000000000000000000000000006000830152602082019050919050565b6000613da5600d8361459f565b91507f534552564943455f5354415254000000000000000000000000000000000000006000830152602082019050919050565b6000613de5600e8361459f565b91507f4e6f7420617574686f72697a65640000000000000000000000000000000000006000830152602082019050919050565b60006020830160008301518482036000860152613e3582826139f1565b9150508091505092915050565b60006040830160008301518482036000860152613e5f8282613adf565b91505060208301518482036020860152613e798282613adf565b9150508091505092915050565b600060e0830160008301518482036000860152613ea38282613adf565b9150506020830151613eb8602086018261396d565b506040830151613ecb604086018261396d565b5060608301518482036060860152613ee38282613adf565b91505060808301518482036080860152613efd8282613adf565b91505060a083015184820360a0860152613f178282613adf565b91505060c083015184820360c0860152613f318282613adf565b9150508091505092915050565b6000610140830160008301518482036000860152613f5c82826139f1565b91505060208301518482036020860152613f768282613adf565b91505060408301518482036040860152613f908282613adf565b91505060608301518482036060860152613faa8282613adf565b91505060808301518482036080860152613fc48282613adf565b91505060a083015184820360a0860152613fde82826139f1565b91505060c083015184820360c0860152613ff88282613adf565b91505060e083015184820360e08601526140128282613adf565b91505061010083015184820361010086015261402e8282613adf565b91505061012083015184820361012086015261404a8282613adf565b9150508091505092915050565b600060408301600083015184820360008601526140748282613e42565b9150506020830151848203602086015261408e8282613f3e565b9150508091505092915050565b60006101008301600083015184820360008601526140b98282613e86565b915050602083015184820360208601526140d38282614057565b915050604083015184820360408601526140ed8282613e18565b91505060608301516141026060860182613a66565b5060808301516141156080860182614159565b5060a083015161412860a0860182614159565b5060c083015161413b60c0860182614159565b5060e083015161414e60e0860182614159565b508091505092915050565b61416281614600565b82525050565b60006141748284613aae565b915081905092915050565b60006020820190508181036000830152614199818461397c565b905092915050565b600060208201905081810360008301526141bb8184613a75565b905092915050565b600060608201905081810360008301526141dd8186613a75565b905081810360208301526141f18185613a75565b905081810360408301526142058184613a75565b9050949350505050565b600060408201905081810360008301526142298184613a75565b9050818103602083015261423c81613b58565b905092915050565b6000604082019050818103600083015261425e8184613a75565b9050818103602083015261427181613b98565b905092915050565b600060408201905081810360008301526142938184613a75565b905081810360208301526142a681613bd8565b905092915050565b600060408201905081810360008301526142c88184613a75565b905081810360208301526142db81613c58565b905092915050565b600060408201905081810360008301526142fd8184613a75565b9050818103602083015261431081613c98565b905092915050565b600060408201905081810360008301526143328184613a75565b9050818103602083015261434581613cd8565b905092915050565b600060408201905081810360008301526143678184613a75565b9050818103602083015261437a81613d58565b905092915050565b6000604082019050818103600083015261439c8184613a75565b905081810360208301526143af81613d98565b905092915050565b600060208201905081810360008301526143d081613b18565b9050919050565b600060208201905081810360008301526143f081613c18565b9050919050565b6000602082019050818103600083015261441081613d18565b9050919050565b6000602082019050818103600083015261443081613dd8565b9050919050565b60006020820190508181036000830152614451818461409b565b905092915050565b6000604051905081810181811067ffffffffffffffff8211171561447c57600080fd5b8060405250919050565b600067ffffffffffffffff82111561449d57600080fd5b602082029050602081019050919050565b600067ffffffffffffffff8211156144c557600080fd5b601f19601f8301169050602081019050919050565b600067ffffffffffffffff8211156144f157600080fd5b601f19601f8301169050602081019050919050565b6000819050602082019050919050565b6000819050602082019050919050565b600081519050919050565b600081519050919050565b600081519050919050565b600081519050919050565b6000602082019050919050565b6000602082019050919050565b600082825260208201905092915050565b600082825260208201905092915050565b600082825260208201905092915050565b600082825260208201905092915050565b600081905092915050565b60006145c6826145e0565b9050919050565b60008190506145db8261466f565b919050565b600073ffffffffffffffffffffffffffffffffffffffff82169050919050565b6000819050919050565b6000614615826145cd565b9050919050565b82818337600083830152505050565b60005b8381101561464957808201518184015260208101905061462e565b83811115614658576000848401525b50505050565b6000601f19601f8301169050919050565b6004811061467957fe5b50565b614685816145bb565b811461469057600080fd5b50565b600481106146a057600080fd5b50565b6146ac81614600565b81146146b757600080fd5b5056fea365627a7a7231582035155eb32d46aa47b36f4de19a366fa651f5065c090f50e5e6e911f4678eaa076c6578706572696d656e74616cf564736f6c63430005100040",
  "source": "pragma solidity >=0.4.22 <0.9.0;\npragma experimental ABIEncoderV2;\n\ncontract ServiceRegistry {\n\n    enum State { Null, Ready, Running, Stop }\n\n    struct Header{\n        string id;\n        address manager;\n        address serviceAccount;\n        string companyName;\n        string companyEmail;\n        string companyContact;\n        string description;\n    }\n\n    \n    struct KubeContext{\n        string[] location;\n        string accessToken;\n        string nodeID;\n        string networkID;\n        string serviceProtocol;\n        string[] servicePoints;\n        string servicePort;\n        string nodeMountService;\n        string nodeMountETCD;\n        string secret;  //v2\n    }\n\n    struct Container{\n        string image;\n        string imageAccessUser;\n    }\n    \n    struct Runtime{\n        Container ct;\n        KubeContext kct;\n    }\n\n    //v3\n    struct Backup{\n        string[] logs;\n    }\n    \n    struct Service{\n        Header header;\n        Runtime runtime;\n        Backup backup; //v3\n        State state;\n        uint256 curReplicas;\n        uint256 serviceLocationIndex;\n        uint256 serviceStartTime;\n        uint256 serviceEndTime;\n    }\n    \n    event ChangeService(string serviceID, string changeType);\n    event NewService(string serviceID);\n    \n    mapping (string => Service) services;\n    mapping (address => string[]) managerServiceList; // string[]: array of service name \n    \n    \n    modifier onlyManager(string memory id){\n        require(services[id].header.manager == msg.sender, \"Not authorized\");\n        _;\n    }\n\n    \n    modifier onlyServiceAccount(string memory id){\n        require(services[id].header.serviceAccount == msg.sender, \"Not authorized\");\n        _;\n    }\n    \n    modifier hasNotService(Service memory service){\n        string memory id = service.header.id;\n        require(services[id].state == State.Null, \"Already registered\");\n        _;\n    }\n    \n    modifier hasService(string memory serviceID){\n        require(services[serviceID].state != State.Null, \"Service does not exist\");\n        _;\n    }\n\n    modifier isRunning(string memory serviceID){\n        require(services[serviceID].state == State.Running, \"It's not running\");\n        _;\n    }\n    \n\n    /* Manager service list*/\n    function getServiceList()\n    public view returns(string[] memory)\n    {\n        return managerServiceList[msg.sender];\n    }\n\n\n    /* Service Manager */\n    function register(Service memory service) \n    public hasNotService(service)\n    {\n        string memory id = service.header.id;\n        services[id] = service;\n        managerServiceList[service.header.manager].push(id);\n        emit NewService(id);\n    }\n\n    /* Service Manager-v2 */\n    function startService(string memory id, string memory secret ,uint256 replicas)\n    public onlyManager(id)\n    {\n        services[id].state = State.Running;\n        services[id].serviceStartTime = block.timestamp;\n        services[id].runtime.kct.secret = secret;\n        services[id].curReplicas = replicas;\n        emit ChangeService(id, \"SERVICE_START\");\n    }\n\n    /* Service Manager-v2 */\n    function updateReplicas(string memory id, uint256 replicas)\n    public onlyManager(id)\n    {\n        services[id].curReplicas = replicas;\n        emit ChangeService(id, \"SERVICE_REPLICAS\");\n    }\n\n    \n    /* Service Manager */\n    function getService(string memory id) \n    public view onlyManager(id)\n    returns (Service memory service)\n    {\n        return services[id];\n    }    \n    \n    /* Service Manager */\n    function updateKubeContext(string memory id, KubeContext memory kubeContext) \n    public onlyManager(id)\n    {\n        services[id].runtime.kct = kubeContext;\n        emit ChangeService(id, \"SERVICE_KUBECONTEXT\");\n    }\n    \n    /* Service Manager */\n    function updateContainer(string memory id, Container memory container) \n    public onlyManager(id)\n    {\n        services[id].runtime.ct = container;\n        emit ChangeService(id, \"SERVICE_CONTAINER\");\n    }\n\n    /* Service Manager-v2 */\n    function pauseService(string memory id)\n    public onlyManager(id)\n    {  \n        services[id].state = State.Ready;\n        services[id].curReplicas = 0;\n        emit ChangeService(id, \"SERVICE_PAUSE\"); \n    }\n    \n    /* Service Manager */\n    function stopService(string memory id) \n    public onlyManager(id)\n    {\n        services[id].state = State.Stop;\n        services[id].serviceEndTime = block.timestamp;\n        emit ChangeService(id, \"SERVICE_STOP\");\n    }\n\n    /* Leader Service-v3 */\n    function backupLog(string memory id, string memory log)\n    public onlyServiceAccount(id)\n    {\n        services[id].backup.logs.push(log);\n        emit ChangeService(id, \"SERVICE_STATE_BACKUP\");\n    }\n\n    /* Leader, Follower Service-v3 */\n    function getLatestBackupLog(string memory id)\n    public view onlyServiceAccount(id)\n    returns (string memory log)\n    {\n        uint index = services[id].backup.logs.length;\n        if(index == 0) return \"empty\";\n        else return services[id].backup.logs[index-1];\n    }\n    \n    /* v3 */\n    function getAllBackupKey(string memory id)\n    public view onlyManager(id)\n    returns (string[] memory logs)\n    {\n        return services[id].backup.logs;\n    }    \n    \n    \n    /* Leader Service-v2 */\n    function updateServiceLocation(string memory id, uint256 curIndex) \n    public onlyServiceAccount(id)\n    {\n        services[id].serviceLocationIndex = curIndex;\n        services[id].state = State.Running;\n        emit ChangeService(id, \"SERVICE_LOCATION\");\n    }\n\n    /* Service Client */\n    function getServiceLocation(string memory id) \n    public view hasService(id) isRunning(id)\n    returns (string memory protocol, string memory point, string memory port)\n    {\n        uint256 index = services[id].serviceLocationIndex;\n\t    point = services[id].runtime.kct.servicePoints[index];\n\t    port = services[id].runtime.kct.servicePort;\n        protocol = services[id].runtime.kct.serviceProtocol;\n    }\n\n}\n\n",
  "sourcePath": "/home/pslab-k8s/truffle-serviceRegistry/contracts/ServiceRegistry.sol",
  "compiler": {
    "name": "solc",
    "version": "0.5.16+commit.9c3226ce.Emscripten.clang"
  },
  "schemaVersion": "3.4.0",
  "updatedAt": "2021-05-24T04:25:45.365Z",
  "networkType": "ethereum",
  "devdoc": {
    "methods": {}
  },
  "userdoc": {
    "methods": {}
  }
}